:020000000A28CC
:10000800FE00030EF4000A08F500772BA12D8316D5
:100018008501033083128511831686000730761018
:10002800831206119F00F0308B0003308316810085
:100038001130831290000F309700FF308316920022
:1000480006308312920083160C14FB147B1445258A
:10005800B030A30000306925A030A3000130692525
:10006800A830A300023069252330E3008030A000C7
:100078000230A1001826063081008618452876111E
:100088004628761500305D262430A3008030A40071
:10009800052640305D261C30A3008030A4000526CC
:1000A8002230630203185428582686186128133012
:1000B800A3008030A400052668280130A300803002
:1000C800A4000526FB107B1040305D26761D6E28A7
:1000D8000A306F282B30A3008030A400052620307A
:1000E80063020318732858260330E000761E7E2822
:1000F80001307F280030C200F6118618F615F61D6B
:100108008728013088280030831203134206031918
:10011800A72803304626861C9328013094280030EF
:10012800C200F61D992801309A2800304206031DA6
:10013800A328D801D9017612F6197616A728F61140
:10014800761EA728F615F619C228803083120313E5
:10015800A0000230A10018260330E0000130590247
:10016800773003195802031CC228D801D901E208C4
:10017800031DC128E201E20AC228E2018312031327
:100188006108630603193E2AF618F7282330C200CF
:1001980063084202AC00AD01031CAD03AE01AD1B08
:1001A800AE032E08AF005708A3005608A200550852
:1001B800A1005408A0002430A400A501A601A701AD
:1001C80012252308B3002208B2002108B100200834
:1001D800B0004B242F08C7002E08C6002D08C50004
:1001E8002C08C4002F292430AC00AD01AE01AF01AA
:1001F8006308A000A101A201A3014B08A7004A08B7
:10020800A6004908A5004808A40012252308B30041
:100218002208B2002108B1002008B0004B242F08A2
:10022800C7002E08C6002D08C5002C08C4005408B5
:10023800C407550803110318013E031DC5075608D6
:1002480003110318013E031DC607570803110318BD
:10025800013E031DC7076308E100E208031D6E297C
:1002680000305D264708BC004608BB004508BA00B8
:100278004408B900452200304702031D4D290030CB
:100288004602031D4D2900304502031D4D29323019
:100298004402031C51290130522920306126403084
:1002A8005D26DF0108305F0203186B295F08C20072
:1002B800C30143085B02031D632942085A02031C59
:1002C8006729FF3068292D306126DF0A5629DA01AF
:1002D800DB010A2A620B0A2A00305D260E30AF01C4
:1002E800AE01AD001030AC005308B3005208B200A4
:1002F8005108B1005008B0004B242C08DF000A3028
:100308005F02031C8D290A30A0005F08BC25303E1F
:100318008E29203061260A30A0005F088525303EEE
:1003280061263A3061263C30AC00AD01AE01AF0128
:100338005308A7005208A6005108A5005008A400B9
:100348000E30A301A201A1001030A000D42423087C
:10035800B3002208B2002108B1002008B0004B24E5
:100368002C08DF000A30A0005F08BC25303E61265B
:100378000A30A0005F088525303E61263A306126A4
:100388003C30A000A101A201A3015308A700520814
:10039800A6005108A5005008A400D4242008DF00B6
:1003A8000A30A0005F08BC25303E61260A30A00054
:1003B8005F088525303E612640305D260230612683
:1003C8000E30AF01AE01AD001030AC004F08A300F5
:1003D8004E08A2004D08A1004C08A0002430A4003B
:1003E800A501A601A70112252308B3002208B2001F
:1003F8002108B1002008B0004B242F08BC002E08AB
:10040800BB002D08BA002C08B9004522003047026D
:10041800031D182A00304602031D182A0030450221
:10042800031D182A32304402031C272A761D2B2A62
:10043800DC08031D2B2AE508031D2B2A0530DC00E8
:10044800E501E50A2B2A650803192B2AE5015C0852
:100458000319322A3C308515E400DC03FB1C7B18A9
:100468003E2A0630DD0A5D02031C3E2ADD013C30CF
:10047800DE007B14E008031D7A28A001A1011826DC
:100488007A286630C10000303C02031D552A00302E
:100498003B02031D552A07303A02031D552AD03066
:1004A800390203186F2A0330C107EE22D424FC2234
:1004B8004B244A2372230319632A592A6623663078
:1004C80041020318622A6630A300A40105262030E1
:1004D80061260030EB2A00303C02031D7D2A0030E3
:1004E8003B02031D7D2A27303A02031D7D2A103066
:1004F80039020318A32A0330532333234B246C23D4
:1005080059232E3080000A30C10AAC0005303C2344
:100518002A23D42413234B244A23410884000A3075
:10052800AC00AD01AE01AF0133234B242C0860238E
:10053800EE22D4242008303E8000C10AE42A00308C
:100548003C02031DB12A01303B02031DB12A86304B
:100558003A02031DB12AA030390203305323332352
:100568000318D22A4B242C08DF00410884000A30E3
:10057800A0005F08BC2559230A30A0005F08852524
:1005880060232E3080006430C10AAC0032303C2336
:100598002A23D42413234B246C239F2A4B244A2335
:1005A8000330C107EE22D424FC224B244A237223B1
:1005B8000319E02AD62A6623663041020318DF2A87
:1005C8006630A300A4010526203061266D3061261F
:1005D8005230612E0A30A000A101A201A3013C08FB
:1005E800A7003B08A6003A08A5003908A40008009F
:1005F8002008DF00410884005F08303E8313800034
:100608000A30C103AC00AD01AE01AF013C08B30034
:100618003B08B2003A08B1003908B00008002008C9
:10062800BD0721080318210FBE0722080318220F4F
:10063800BF0723080318230AC0074008B3003F0870
:10064800B2003E08B1003D08B00008003C08A70011
:100658003B08A6003A08A5003908A40008003C0891
:10066800B3003B08B2003A08B1003908B0000800EE
:10067800AD01AE01AF01BD000330BE01BF01C00135
:10068800A301A201A100E830A00008002F08BC00C7
:100698002E08BB002D08BA002C08B9000800AF01CD
:1006A800AE01AD00E830AC000800303E8313800096
:1006B800C10A410884000800303E8000C10A410890
:1006C800840008004108840020308000C10308002D
:1006D8002C08DF00410884005F0808003C083B0440
:1006E8003A0439040800831203130C1C902B761C5F
:1006F8007F2B76108A2B7B1C8B2B7614761C882BF1
:100708008312031306158B2B831203130611F8307B
:100718008E00FF308F000C100B1D042CFA0AD80A2B
:100728000319D90AF90A7908F93A031DF02B0030A0
:10073800F9015302031DAA2B00305202031DAA2BF4
:100748007E305102031DAA2B3F3050020318B42BF0
:10075800D00A0319D10A0319D20A0319D30ABC2BE8
:10076800CC01CD01CE01CF01D001D101D201D301FD
:1007780063080319C12BE303D12B2330E300F61CD4
:10078800F6145708CB005608CA005508C900540883
:10079800C800D401D501D601D7017708F000780840
:1007A800F100F201F3017008D4077108031103186E
:1007B800013E031DD507720803110318013E031DEE
:1007C800D607730803110318013E031DD707F70165
:1007D800F8016008031DE003FB1C7B1CF62BDE0BF5
:1007E800F62B7B107619FB2B5C080319012C640887
:1007F8000319012CE40B012C8511063081000B1123
:100808008B1C442C7808193A6430031977060319AD
:10081800102CF70A0319F80A00305B020830031994
:100828005A0203181A2CDA0A0319DB0A02304F029B
:10083800031D282CB7304E02031D282C3B304D02D7
:10084800031D282C63304C020318312CCC0A0319E1
:10085800CD0A0319CE0A0319CF0AFB18382CDD017B
:100868003C30DE007B1C7B14761D432CDC08031D0A
:10087800432CE408031D432C06308515E4008B1037
:1008880075088A00740E8300FE0E7E0E0900B401FE
:10089800B501B601B7012F082E042D042C04031945
:1008A8008A2CB801B80AAF1B5F2C0310AC0DAD0D34
:1008B800AE0DAF0D562C0310B40DB50DB60DB70D1A
:1008C8002F083302031D722C2E083202031D722CCE
:1008D8002D083102031D722C2C083002031C842CB5
:1008E8002C08B0022D08031C2D0FB1022E08031C82
:1008F8002E0FB2022F08031C2F0FB302341403105B
:10090800AF0CAE0CAD0CAC0CB80B5F2C3708AF00BD
:100918003608AE003508AD003408AC000800FF1BEF
:100928009D2C83137F1883170008840A0319FF0A74
:10093800080004308A000408840A8207003453340B
:10094800743441345234743469344E344734003486
:100958005334303455344E346434203430344E34C7
:100968000034623430343034533474342034303406
:100978004E3400344334303455344E3474344534B2
:10098800523400344734453469344734453452349A
:100998000034533469346C3445344E347434003480
:1009A80023082204210420040319092DA801A80AF8
:1009B800A31BE42C0310A00DA10DA20DA30DDB2C8D
:1009C80023082702031DF22C22082602031DF22CFD
:1009D80021082502031DF22C20082402031C032DE4
:1009E8002008A4022108031C210FA5022208031CC9
:1009F800220FA6022308031C230FA7020310A30C2F
:100A0800A20CA10CA00CA80BE42C2708A300260814
:100A1800A2002508A1002408A0000800A801A90137
:100A2800AA01AB01201C2C2D2408A80725080311B6
:100A38000318013E031DA907260803110318013EE8
:100A4800031DAA07270803110318013E031DAB075E
:100A58000310A40DA50DA60DA70D0310A30CA20C41
:100A6800A10CA00C2308220421042004031D162D28
:100A78002B08A3002A08A2002908A1002808A00022
:100A880008003230831205103A26303086000530CF
:100A9800851485103A26213085148510A300A30BF0
:100AA800532D0530851485103A26203086000D30E8
:100AB80085148510A400A40B5F2D2830EF2508307D
:100AC800EF250C30EF250630EF2DA5000730A505E2
:100AD80005102508A4000310A40D0310A40D03108D
:100AE800240D4038EF25A601051426082307A40085
:100AF80084000008EF250830A60A2602031808001B
:100B0800782DA2000830A300A4012208A100073014
:100B18000310A10CFF3E0310031D8D2D240D21048D
:100B2800A4000310A20D20082402031C9D2D2008F8
:100B3800A402A30B892D240808007730F60184004D
:100B48007B30502644308313840066305026B830FA
:100B5800FD000530FE00D730FF00A03084002F26AE
:100B68002030E600E700E800E900EA0183010B28ED
:100B7800A100A30120080319D52DA201A20AA01BD8
:100B8800C82D0310A00DC22D0310A30D20082102AB
:100B9800031CD22D2008A10223140310A00CA20BC1
:100BA800C82D2308080004340E340E340E340E34D5
:100BB8001F340434003400341F340834043402343D
:100BC800043408341F34003400341134113413341D
:100BD8001D3410341034A200FE2585148510220817
:100BE800A000200EFE250D3085148510A100A10B54
:100BF800FB2D0800F039A00006080F3920048600F4
:100C0800080005142408FF002308840093240038F2
:100C1800031908002408FF00230884009324EF2503
:100C2800A30A0319A40A062E2108A3002008A2007B
:100C38000310A30CA20C0310A30CA20C220895000D
:100C4800CF309705200EF0393039970408007E0818
:100C58008A007F0882002B268000840A04087D060B
:100C680003190034FF0A0319FE0A2F2EA0000430CE
:100C7800A1005330A200A20B3F2EA10B3D2EA00BCA
:100C88003B2E0800A000FA018312031320087A0201
:100C9800031808000000482E64008001840A040636
:100CA800031900340406512E01300510EF250230D7
:100CB8003A2EA3000510803EEF2DA3000514EF2D5A
:02400E0038FF79
:00000001FF
