:020000000A28CC
:10000800FE00030EF8000A08F9009C2B292E83161F
:1000180085010330831285118316860007307A1014
:10002800831206119F00F0308B0043308316810045
:100038001130831290000F309700FF308316920022
:1000480006308312920083160C14FB147B14B2251D
:10005800B030C9000030D625A030C9000130D625FF
:10006800A830C9000230D6252330C300D030C600DE
:100078000230C70083260630810083169B013F307B
:100088009C051C141A088312C40002304402031C85
:100098004F28C401C40A86186B284408013CC400D0
:1000A80083169C1854289B018312440883169A00CF
:1000B8003F309C0503108B1B031455308B131C1504
:1000C8009D00AA309D009C141C1103188B1700304A
:1000D800D6262430C9008030CA0070264030D62683
:1000E8001C30C9008030CA00702622304302031831
:1000F8007928DB26861886281330C9008030CA0084
:1001080070268D280130C9008030CA007026FB1087
:100118007B104030D6264408031994280A309528C5
:100128002B30C9008030CA007026203043020318E3
:100138009928DB26EE30B8000230B900FA1DA6284F
:100148000130A7280030E8007A1186187A157A1D40
:10015800AF280130B0280030831203136806031952
:10016800CF280330C426861CBB280130BC280030A9
:10017800E8007A1DC1280130C22800306806031D36
:10018800CB28B601B701FA117A19FA15CF287A11D6
:10019800FA1DCF287A157A19EC28D0308312031368
:1001A800C6000230C7008326EE30B8000230B9001E
:1001B80001303702773003193602031CEC28B601E8
:1001C800B701C208031DEB28C201C20AEC28C2010C
:1001D80083120313410843060319A228FA18212998
:1001E8002330E80043086802D200D301031CD3037C
:1001F800D401D31BD4035408D5003308C9003208EE
:10020800C8003108C7003008C6002430CA00CB0136
:10021800CC01CD017F254908D9004808D8004708F6
:10022800D7004608D6007F245508A3005408A2002A
:100238005308A1005208A00059292430D200D30144
:10024800D401D5014308C600C701C801C901270860
:10025800CD002608CC002508CB002408CA007F253D
:100268004908D9004808D8004708D7004608D600EA
:100278007F245508A3005408A2005308A10052087F
:10028800A0003008A007310803110318013E031D20
:10029800A107320803110318013E031DA207330802
:1002A80003110318013E031DA3074308C100C20838
:1002B800031D98290030D6262308E2002208E10011
:1002C8002108E0002008DF006A2200302302031D15
:1002D800772900302202031D772900302102031DEF
:1002E800772932302002031C7B2901307C292030F9
:1002F800E0264030D626BF0108303F020318952972
:100308003F08E800E90169083B02031D8D296808D8
:100318003A02031C9129FF3092292D30E026BF0AAA
:100328008029BA01BB01342A420B342A0030D62670
:100338000E30D501D401D3001030D2002F08D900D7
:100348002E08D8002D08D7002C08D6007F24520884
:10035800BF000A303F02031CB7290A30C6003F0815
:100368000E26303EB8292030E0260A30C6003F0865
:10037800F225303EE0263A30E0263C30D200D30168
:10038800D401D5012F08CD002E08CC002D08CB00B4
:100398002C08CA000E30C901C801C7001030C600B9
:1003A80041254908D9004808D8004708D700460819
:1003B800D6007F245208BF000A30C6003F080E2628
:1003C800303EE0260A30C6003F08F225303EE026DF
:1003D8003A30E0263C30C600C701C801C9012F08E1
:1003E800CD002E08CC002D08CB002C08CA004125D2
:1003F8004608BF000A30C6003F080E26303EE026F9
:100408000A30C6003F08F225303EE0264030D626A6
:100418000230E0260E30D501D401D3001030D200CE
:100428002B08C9002A08C8002908C7002808C600E0
:100438002430CA00CB01CC01CD017F254908D90061
:100448004808D8004708D7004608D6007F24550832
:10045800E2005408E1005308E0005208DF006A2275
:1004680000302302031D422A00302202031D422AC3
:1004780000302102031D422A32302002031C522A76
:1004880044080319562ABC08031D562AC508031D2B
:10049800562A0530BC00C501C50A562A4508031965
:1004A800562AC5013C0803195D2A3C308515FD0014
:1004B800BC03FB1C7B18A2280630BD0A3D02031CA6
:1004C800A228BD013C30FC007B14A2286A30E7005A
:1004D80000306202031D7A2A00306102031D7A2A65
:1004E80007306002031D7A2AD0305F020318942A6D
:1004F8000330E7071323412521237F246F23972304
:100508000319882A7E2A91236A3067020318872AEA
:100518006A30C900CA0170262030E0260030102B4E
:1005280000306202031DA22A00306102031DA22AC4
:1005380027306002031DA22A10305F020318C82A60
:100548000330782358237F2485237E232E30800090
:100558000A30E70AD200053061234F2341253823AA
:100568007F246F23670884000A30D200D301D401A6
:10057800D50158237F2452088B231323412546088D
:10058800303E8000E70A092B00306202031DD62A9C
:1005980001306102031DD62A86306002031DD62A67
:1005A800A0305F020330782358230318F72A7F24EA
:1005B8005208BF00670884000A30C6003F080E26AC
:1005C8007E230A30C6003F08F2258B232E30800098
:1005D8006430E70AD200323061234F2341253823A3
:1005E8007F248523C42A7F246F230330E70713233E
:1005F800412521237F246F2397230319052BFB2AE9
:1006080091236A3067020318042B6A30C900CA01B3
:1006180070262030E0266D30E0265230E02E0A3079
:10062800C600C701C801C9016208CD006108CC0035
:100638006008CB005F08CA0008004608BF006708CA
:1006480084003F08303E831380000A30E703D2005D
:10065800D301D401D5016208D9006108D800600827
:10066800D7005F08D60008004608E30747080318C4
:10067800470FE40748080318480FE5074908031817
:10068800490AE6076608D9006508D8006408D70053
:100698006308D60008006208CD006108CC00600835
:1006A800CB005F08CA0008006208D9006108D800BA
:1006B8006008D7005F08D6000800D301D401D5012F
:1006C800E3000330E401E501E601C901C801C70000
:1006D800E830C60008005508E2005408E100530855
:1006E800E0005208DF000800D501D401D300E8304B
:1006F800D2000800303E83138000E70A67088400B0
:1007080008005208BF00670884003F080800303E10
:100718008000E70A67088400080067088400203022
:100728008000E70308006208610460045F040800B1
:10073800831203130C1CB52B7A1CA42B7A10AF2B35
:100748007B1CB02B7A147A1CAD2B8312031306156D
:10075800B02B831203130611F3308E00FF308F0085
:100768000C100B1D372CC00AB60A0319B70ABE0AAB
:100778003E08F93A031D122C0030BE012F02031D5A
:10078800CF2B00302E02031DCF2B7E302D02031DF0
:10079800CF2B3F302C020318D92BAC0A0319AD0A12
:1007A8000319AE0A0319AF0AE12BA801A901AA018E
:1007B800AB01AC01AD01AE01AF0143080319E62B53
:1007C800C303F62B2330C300FA1CFA143308A7001E
:1007D8003208A6003108A5003008A400B001B10114
:1007E800B201B3013408F4003508F500F601F70149
:1007F8007408B007750803110318013E031DB107FB
:10080800760803110318013E031DB2077708031188
:100818000318013E031DB307B401B50139083804B4
:100828000319232C0130B8020030031CB903B902A4
:1008380039083804031D232CF001F1019626FB1C0E
:100848007B1C292CFC0B292C7B10C40803193C08A1
:100858000319342C7D080319342CFD0B342C851115
:10086800063081000B118B1C782C3508193A64303E
:10087800031934060319432CB40A0319B50A0030C6
:100888003B02083003193A0203184D2CBA0A03191F
:10089800BB0A02302B02031D5B2CB7302A02031D52
:1008A8005B2C3B302902031D5B2C633028020318A4
:1008B800642CA80A0319A90A0319AA0A0319AB0A7E
:1008C800FB186B2CBD013C30FC007B1C7B144408DE
:1008D8000319772CBC08031D772CFD08031D772C02
:1008E80006308515FD008B1079088A00780E830084
:1008F800FE0E7E0E0900DA01DB01DC01DD01550880
:100908005404530452040319BE2CDE01DE0AD51B1D
:10091800932C0310D20DD30DD40DD50D8A2C0310B2
:10092800DA0DDB0DDC0DDD0D55085902031DA62C73
:1009380054085802031DA62C53085702031DA62C61
:1009480052085602031CB82C5208D6025308031C3E
:10095800530FD7025408031C540FD8025508031C20
:10096800550FD9025A140310D50CD40CD30CD20C41
:10097800DE0B932C5D08D5005C08D4005B08D3001F
:060988005A08D20008002D
:100A0000FF1B0A2D83137F1883170008840A03191C
:100A1000FF0A080005308A000408840A82070034AF
:100A20005334743441345234743469344E3447345A
:100A300000345334303455344E346434203430343C
:100A40004E3400346234303430345334743420340F
:100A500030344E3400344334303455344E347434EE
:100A600045345234003447344534693447344534CE
:100A700052340034533469346C3445344E34743455
:100A8000003449084804470446040319762DCE0172
:100A9000CE0AC91B512D0310C60DC70DC80DC90DB7
:100AA000482D49084D02031D5F2D48084C02031DC7
:100AB0005F2D47084B02031D5F2D46084A02031CA9
:100AC000702D4608CA024708031C470FCB0248088E
:100AD000031C480FCC024908031C490FCD02031028
:100AE000C90CC80CC70CC60CCE0B512D4D08C90043
:100AF0004C08C8004B08C7004A08C6000800CE01D1
:100B0000CF01D001D101461C992D4A08CE074B08D0
:100B100003110318013E031DCF074C0803110318EE
:100B2000013E031DD0074D0803110318013E031DAC
:100B3000D1070310CA0DCB0DCC0DCD0D0310C90C80
:100B4000C80CC70CC60C4908480447044604031DDA
:100B5000832D5108C9005008C8004F08C7004E082F
:100B6000C6000800323083120510B82630308600E7
:100B7000053085148510B826213085148510C900EC
:100B8000C90BC02D053085148510B826203086008D
:100B90000D3085148510CA00CA0BCC2D28305A267A
:100BA00008305A260C305A2606305A2ECB00073011
:100BB000CB0505104B08CA000310CA0D0310CA0D5F
:100BC00003104A0D40385A26CC0105144C08490739
:100BD000CA00840000085A260830CC0A4C020318C8
:100BE0000800E52DC8000830C900CA014808C70040
:100BF00007300310C70CFF3E0310031DFA2D4A0DEA
:100C00004704CA000310C80D46084A02031C0A2EF6
:100C10004608CA02C90BF62D4A080800C700C901D8
:100C200046080319272EC801C80AC61B1A2E03102E
:100C3000C60D142E0310C90D46084702031C242EAE
:100C40004608C70249140310C60CC80B1A2E4908DF
:100C500008002030FA01FC01FD01831384004630B6
:100C6000CE26B830FD000630FE004230FF00A03036
:100C70008400AD262030EA00EB00EC00ED00EE0130
:100C800083010B2804340E340E340E340E341F341A
:100C90000434003400341F3408340434023404347F
:100CA00008341F34003400341134113413341D342B
:100CB00010341034C8006926851485104808C60011
:100CC000460E69260D3085148510C700C70B662EA9
:100CD0000800F039C60006080F39460486000800EF
:100CE00005144A08FF00490884000025003803194C
:100CF00008004A08FF004908840000255A26C90A4E
:100D00000319CA0A712E4708C9004608C800031013
:100D1000C90CC80C0310C90CC80C48089500CF308A
:100D20009705460EF0393039970408007108F30032
:100D30007008F2000310F30CF20C0310F30CF20C29
:100D400072089500CF309705700EF039303997044E
:100D500008007E088A007F088200A9268000840A95
:100D600004087D0603190034FF0A0319FE0AAD2E9C
:100D7000C6000430C7005330C800C80BBD2EC70BD7
:100D8000BB2EC60BB92E0800C600C0018312031388
:100D900046084002031808000000C62E64008001C7
:100DA000840A0406031900340406CF2E8312C900F6
:100DB0000510803E5A2E013005105A260230B82EFA
:060DC000C90005145A2EC3
:02400E0038FF79
:00000001FF
