:020000000A28CC
:10000800FE00030EF8000A08F900C42B5C2E8316C4
:1000180085010330831285118316860007307A1014
:10002800831206119F00F0308B0043308316810045
:100038001130831290000F309700FF308316920022
:1000480006308312920083160C14FB147B14B2251D
:10005800B030CB000030F325A030CB000130F325C1
:10006800A830CB000230F3252330C400D030C800BC
:100078000230C90082260630810083169B013F307A
:100088009C051C141A088312C50002304502031C83
:100098004F28C501C50A86186B284508013CC500CC
:1000A80083169C1854289B018312450883169A00CE
:1000B8003F309C0503108B1B031455308B131C1504
:1000C8009D00AA309D009C141C1103188B1700304A
:1000D800D5261C30CB008030CC006F264030D5268A
:1000E8002A30CB008030CC006F262230440203181F
:1000F8007928DA26861886281330CB008030CC0081
:100108006F268D280130CB008030CC006F26FB1085
:100118007B104030D5264508031994280A309528C5
:100128002330CB008030CC006F26203044020318E7
:100138009928DA26DC30B6000230B7007A1EA628E5
:100148000130A7280030EB00FA118618FA15FA1DBD
:10015800AF280130B0280030831203136B0603194F
:10016800EE280330C326861CBB280130BC2800308B
:10017800EB00FA1DC1280130C22800306B06031DB0
:10018800EA28FA19E428BA01BB0100303D027D30A3
:1001980003193C020318DA28C308031DD628C30133
:1001A800C30AD728C301440AC200E628D030C800D1
:1001B8000230C9008226DC30B6000230B700E628DB
:1001C800BC01BD017A12FA197A16EE28FA117A1EC4
:1001D800EE28FA15FA1918290130831203133B0285
:1001E800773003193A02031C18290430FA067A19E1
:1001F8000129C801C90182260A29D030C800023065
:10020800C9008226DC30B6000230B7004508031961
:100218001629BE08031D1629C608031D16291830FD
:100228008515C600BA01BB018312031342084406B0
:100238000319A228FA184D292330EB0044086B0251
:10024800D400D501031CD503D601D51BD603560807
:10025800D7003308CB003208CA003108C90030087B
:10026800C8002430CC00CD01CE01CF017F254B083A
:10027800DB004A08DA004908D9004808D800BA243F
:100288005708A3005608A2005508A1005408A0006A
:1002980085292430D400D501D601D7014408C800E7
:1002A800C901CA01CB012708CF002608CE002508BE
:1002B800CD002408CC007F254B08DB004A08DA0073
:1002C8004908D9004808D800BA245708A300560896
:1002D800A2005508A1005408A0003008A007310862
:1002E80003110318013E031DA10732080311031867
:1002F800013E031DA207330803110318013E031D25
:10030800A3074408C200C308031DC4290030D5262A
:100318002308E4002208E3002108E2002008E100A5
:10032800962200302302031DA32900302202031D58
:10033800A32900302102031DA32932302002031C07
:10034800A7290130A8292030DF264030D526C10151
:10035800083041020318C1294108EB00EC016C0880
:100368003902031DB9296B083802031CBD29FF3067
:10037800BE292D30DF26C10AAC29B801B901602A8F
:10038800430B602A0030D5260E30D701D601D500A0
:100398001030D4002F08DB002E08DA002D08D90011
:1003A8002C08D800BA245408C1000A304102031CA2
:1003B800E3290A30C80041082B26303EE4292030C2
:1003C800DF260A30C80041080F26303EDF263A30C3
:1003D800DF263C30D400D501D601D7012F08CF0045
:1003E8002E08CE002D08CD002C08CC000E30CB01F5
:1003F800CA01C9001030C80041254B08DB004A0873
:10040800DA004908D9004808D800BA245408C100BD
:100418000A30C80041082B26303EDF260A30C800C3
:1004280041080F26303EDF263A30DF263C30C80030
:10043800C901CA01CB012F08CF002E08CE002D0814
:10044800CD002C08CC0041254808C1000A30C8005E
:1004580041082B26303EDF260A30C80041080F2607
:10046800303EDF264030D5260230DF260E30D70159
:10047800D601D5001030D4002B08CB002A08CA00BA
:100488002908C9002808C8002430CC00CD01CE01B5
:10049800CF017F254B08DB004A08DA004908D9005C
:1004A8004808D800BA245708E4005608E30055085D
:1004B800E2005408E100962200302302031D6E2A50
:1004C80000302202031D6E2A00302102031D6E2A0D
:1004D80032302002031C7E2A45080319822ABE08EE
:1004E800031D822AC708031D822A0530BE00C701E2
:1004F800C70A822A47080319822AC7013E08031936
:10050800892A3C308515C600BE03FB1C7B18A2282F
:100518000630BF0A3F02031CA228BF013C30FC0082
:100528007B14A228B830EA006D30E900003064027C
:10053800031DA82A00306302031DA82A073062029F
:10054800031DA82AD03061020318BC2A0330EA0729
:100558003B2341256023BA249723BF230319B62AD6
:10056800AC2AB923B8306A020318B52AE901312B3D
:1005780000306402031DCA2A00306302031DCA2A20
:1005880027306202031DCA2A103061020318F02ABC
:100598000330A0238023BA24AD23A6232E30800065
:1005A8000A30EA0AD40005308923772341254923F4
:1005B800BA2497236A0884000A30D400D501D601EA
:1005C800D7018023BA245408B3233B234125480884
:1005D800303E8000EA0A312B00306402031DFE2AF7
:1005E80001306302031DFE2A86306202031DFE2AC3
:1005F800A03061020330A023802303181F2BBA24E4
:100608005408C1006A0884000A30C80041082B2633
:10061800A6230A30C80041080F26B3232E308000D5
:100628006430EA0AD40032308923772341254923EC
:10063800BA24AD23EC2ABA2497230330EA073B23D4
:1006480041256023BA249723BF2303192D2B232B7D
:10065800B923B8306A0203182C2BB830CB00CC0170
:100668006F262030DF266908DF265230DF2E0A3059
:10067800C800C901CA01CB016408CF006308CE00D5
:100688006208CD006108CC0008004808E507490861
:100698000318490FE6074A0803184A0FE7074B08EB
:1006A80003184B0AE8076808DB006708DA006608E1
:1006B800D9006508D80008004808C1006A08840005
:1006C8004108303E831380000A30EA03D400D50184
:1006D800D601D7016408DB006308DA006208D90094
:1006E8006108D80008006408CF006308CE006208DB
:1006F800CD006108CC0008006408DB006308DA005C
:100708006208D9006108D8000800D501D601D701D0
:10071800E5000330E601E701E801CB01CA01C900A1
:10072800E830C80008005708E4005608E3005508F8
:10073800E2005408E1000800D701D601D500E830EE
:10074800D4000800303E83138000EA0A6A08840057
:1007580008005408C1006A08840041080800303EB7
:100768008000EA0A6A08840008006A0884002030C9
:100778008000EA0308006408630462046104080056
:10078800831203130C1CDD2B7A1CCC2B7A10D72B6D
:100798007B1CD82B7A147A1CD52B831203130615CD
:1007A800D82B831203130611F8308E00FF308F0008
:1007B8000C100B1D722CFD0A09303B02C4300319C2
:1007C8003A020318EA2BBA0A0319BB0A09303D0298
:1007D800C43003193C020318F42BBC0A0319BD0AE0
:1007E800C00A4008F43A031D4B2C0030C0012F0208
:1007F800031D082C00302E02031D082C7E302D020C
:10080800031D082C3F302C020318122CAC0A0319C4
:10081800AD0A0319AE0A0319AF0A1A2CA801A901D7
:10082800AA01AB01AC01AD01AE01AF014408031947
:100838001F2CC4032F2C2330C400FA1CFA143308CD
:10084800A7003208A6003108A5003008A400B001AE
:10085800B101B201B3013408F4003508F500F6011E
:10086800F7017408B007750803110318013E031D4A
:10087800B107760803110318013E031DB207770874
:1008880003110318013E031DB307B401B5017A191A
:100898005E2C3708360403195E2C0130B60200308E
:1008A800031CB703B70237083604031D5E2CF0019A
:1008B800F1019526FB1C7B1C642CFC0B642C7B1023
:1008C800C50803193E0803196F2C460803196F2C35
:1008D800C60B6F2C8511063081000B118B1CB32CB5
:1008E8003508193A64300319340603197E2CB40A02
:1008F8000319B50A00303902083003193802031801
:10090800882CB80A0319B90A02302B02031D962C49
:10091800B7302A02031D962C3B302902031D962C62
:100928006330280203189F2CA80A0319A90A03197F
:10093800AA0A0319AB0AFB18A62CBF013C30FC001D
:100948007B1C7B1445080319B22CBE08031DB22C6E
:10095800C608031DB22C06308515C6008B10790811
:100968008A00780E8300FE0E7E0E0900DC01DD0190
:10097800DE01DF0157085604550454040319F92C05
:10098800E001E00AD71BCE2C0310D40DD50DD60DEF
:10099800D70DC52C0310DC0DDD0DDE0DDF0D57085E
:1009A8005B02031DE12C56085A02031DE12C550871
:1009B8005902031DE12C54085802031CF32C540857
:1009C800D8025508031C550FD9025608031C560FA8
:1009D800DA025708031C570FDB025C140310D70C0C
:1009E800D60CD50CD40CE00BCE2C5F08D7005E08D3
:1009F800D6005D08D5005C08D4000800FF1B0C2D4C
:100A080083137F1883170008840A0319FF0A080054
:100A180005308A000408840A820700345334743489
:100A280041345234743469344E34473400345334C6
:100A3800303455344E346434203430344E34003439
:100A480062343034303453347434203430344E34D7
:100A5800003447344534693447344534523400341B
:100A6800533469346C3445344E3474340034763439
:100A780031342E343334353400344B084A044904B5
:100A880048040319762DD001D00ACB1B512D031031
:100A9800C80DC90DCA0DCB0D482D4B084F02031DBB
:100AA8005F2D4A084E02031D5F2D49084D02031DA4
:100AB8005F2D48084C02031C702D4808CC024908D9
:100AC800031C490FCD024A08031C4A0FCE024B08EB
:100AD800031C4B0FCF020310CB0CCA0CC90CC80C5B
:100AE800D00B512D4F08CB004E08CA004D08C90045
:100AF8004C08C8000800D001D101D201D301481C1C
:100B0800992D4C08D0074D0803110318013E031D09
:100B1800D1074E0803110318013E031DD2074F08E1
:100B280003110318013E031DD3070310CC0DCD0D8F
:100B3800CE0DCF0D0310CB0CCA0CC90CC80C4B083A
:100B48004A0449044804031D832D5308CB00520866
:100B5800CA005108C9005008C80008003230831282
:100B68000510B72630308600053085148510B72665
:100B7800213085148510CB00CB0BC02D0530851492
:100B88008510B726203086000D3085148510CC00DE
:100B9800CC0BCC2D28304626083046260C3046266D
:100BA8000630462E04340E340E340E340E341F3400
:100BB8000434003400341F34083404340234043458
:100BC80008341F34003400341134113413341D3404
:100BD8001034103420342034203420340034CD0034
:100BE8000730CD0505104D08CC000310CC0D0310BF
:100BF800CC0D03104C0D40384626CE0105144E0886
:100C08004B07CC008400000846260830CE0A4E0266
:100C180003180800022ECA000830CB00CC014A088D
:100C2800C90007300310C90CFF3E0310031D172E1F
:100C38004C0D4904CC000310CA0D48084C02031C93
:100C4800272E4808CC02CB0B132E4C080800C900ED
:100C5800CB0148080319442ECA01CA0AC81B372EFB
:100C68000310C80D312E0310CB0D48084902031C90
:100C7800412E4808C9024B140310C80CCA0B372E62
:100C88004B080800CA005526851485104A08C80074
:100C9800480E55260D3085148510C900C90B522EF3
:100CA8000800F039C80006080F3948048600080013
:100CB8002030FA01FC01FD01831384004830CD2661
:100CC800BD30FD000530FE00D630FF00A0308400A6
:100CD800AC2683010B2805144C08FF004B08840040
:100CE80002250038031908004C08FF004B0884004F
:100CF80002254626CB0A0319CC0A702E4908CB00D8
:100D08004808CA000310CB0CCA0C0310CB0CCA0C41
:100D18004A089500CF309705480EF03930399704C6
:100D280008007108F3007008F2000310F30CF20CCD
:100D38000310F30CF20C72089500CF309705700E73
:100D4800F0393039970408007E088A007F0882004D
:100D5800A8268000840A04087D0603190034FF0AC7
:100D68000319FE0AAC2EC8000430C9005330CA006B
:100D7800CA0BBC2EC90BBA2EC80BB82E0800C80067
:100D8800FD018312031348087D02031808000000C0
:100D9800C52E64008001840A040603190034040681
:100DA800CE2E8312CB000510803E462E0130051052
:0C0DB80046260230B72ECB000514462E54
:02400E0038FF79
:00000001FF
