:020000000A28CC
:10000800FE00030EF4000A08F5009E2BC92D831686
:100018008501033083128511831686000730761018
:10002800831206119F00F0308B0043308316810045
:100038001130831290000F309700FF308316920022
:1000480006308312920083160C14FB147B146D2562
:10005800B030A30000309125A030A30001309125D5
:10006800A830A300023091252330E3008030A0009F
:100078000230A10040260630810083169B013F30E4
:100088009C051C141A088312E40002306402031C45
:100098004F28E401E40A86186B286408013CE40050
:1000A80083169C1854289B018312640883169A00AF
:1000B8003F309C0503108B1B031455308B131C1504
:1000C8009D00AA309D009C141C1103188B1700304A
:1000D80080262430A3008030A4002D2640308026BE
:1000E8001C30A3008030A4002D26223063020318A0
:1000F80079288526861886281330A3008030A40026
:100108002D268D280130A3008030A4002D26FB1059
:100118007B10403080266408031994280A309528FB
:100128002B30A3008030A4002D2620306302031852
:10013800992885260330E000F61DA4280130A5285B
:100148000030C200761186187615761DAD2801306C
:10015800AE2800308312031342060319CD2803305A
:100168006E26861CB9280130BA280030C200761DD8
:10017800BF280130C02800304206031DC928D80115
:10018800D901F6117619F615CD287611F61DCD2868
:1001980076157619E828803083120313A000023000
:1001A800A10040260330E0000130590277300319DE
:1001B8005802031CE828D801D901E208031DE728E2
:1001C800E201E20AE828E2018312031361086306E8
:1001D8000319652AF6181D292330C2006308420254
:1001E800AC00AD01031CAD03AE01AD1BAE032E0880
:1001F800AF005708A3005608A2005508A1005408EC
:10020800A0002430A400A501A601A7013A252308CF
:10021800B3002208B2002108B1002008B0007324FE
:100228002F08C7002E08C6002D08C5002C08C400DA
:1002380055292430AC00AD01AE01AF016308A00020
:10024800A101A201A3014B08A7004A08A60049087A
:10025800A5004808A4003A252308B3002208B200E4
:100268002108B1002008B00073242F08C7002E0809
:10027800C6002D08C5002C08C4005408C40755083A
:1002880003110318013E031DC5075608031103187F
:10029800013E031DC607570803110318013E031D3D
:1002A800C7076308E100E208031D9429003080268F
:1002B8004708BC004608BB004508BA004408B90016
:1002C8006C2200304702031D732900304602031DCB
:1002D800732900304502031D732932304402031C80
:1002E80077290130782920308A2640308026DF019E
:1002F80008305F02031891295F08C200C301430850
:100308005B02031D892942085A02031C8D29FF300C
:100318008E292D308A26DF0A7C29DA01DB01302A72
:10032800620B302A003080260E30AF01AE01AD00DE
:100338001030AC005308B3005208B2005108B100A5
:100348005008B00073242C08DF000A305F02031C39
:10035800B3290A30A0005F08E425303EB4292030D4
:100368008A260A30A0005F08AD25303E8A263A303A
:100378008A263C30AC00AD01AE01AF015308A7009E
:100388005208A6005108A5005008A4000E30A30189
:10039800A201A1001030A000FC242308B300220809
:1003A800B2002108B1002008B00073242C08DF0037
:1003B8000A30A0005F08E425303E8A260A30A000F3
:1003C8005F08AD25303E8A263A308A263C30A000A8
:1003D800A101A201A3015308A7005208A6005108D1
:1003E800A5005008A400FC242008DF000A30A00063
:1003F8005F08E425303E8A260A30A0005F08AD2554
:10040800303E8A264030802602308A260E30AF01E0
:10041800AE01AD001030AC004F08A3004E08A2009A
:100428004D08A1004C08A0002430A400A501A60195
:10043800A7013A252308B3002208B2002108B10019
:100448002008B00073242F08BC002E08BB002D081C
:10045800BA002C08B9006C2200304702031D3E2A5E
:1004680000304602031D3E2A00304502031D3E2A85
:1004780032304402031C4E2A64080319522ADC084D
:10048800031D522AE608031D522A0530DC00E60146
:10049800E60A522A66080319522AE6015C0803197B
:1004A800592A3C308515E500DC03FB1C7B18652ABE
:1004B8000630DD0A5D02031C652ADD013C30DE00E2
:1004C8007B14E008031DA028A001A1014026A02854
:1004D8006730C10000303C02031D7C2A00303B021B
:1004E800031D7C2A07303A02031D7C2AD0303902CA
:1004F8000318962A0330C1071523FC2423237324E9
:100508007123992303198A2A802A8D23673041028F
:100518000318892A6730A300A4012D2620308A26D3
:100528000030122B00303C02031DA42A00303B028D
:10053800031DA42A27303A02031DA42A10303902C9
:100548000318CA2A03307A235A2373249323802357
:100558002E3080000A30C10AAC00053063235123D5
:10056800FC243A2373247123410884000A30AC0028
:10057800AD01AE01AF015A2373242C08872315233C
:10058800FC242008303E8000C10A0B2B00303C02BE
:10059800031DD82A01303B02031DD82A86303A02AF
:1005A800031DD82AA030390203307A235A230318AE
:1005B800F92A73242C08DF00410884000A30A000BF
:1005C8005F08E42580230A30A0005F08AD25872353
:1005D8002E3080006430C10AAC00323063235123CE
:1005E800FC243A2373249323C62A732471230330EB
:1005F800C1071523FC24232373247123992303198A
:10060800072BFD2A8D23673041020318062B67301C
:10061800A300A4012D2620308A266D308A26523068
:100628008A2E0A30A000A101A201A3013C08A7005C
:100638003B08A6003A08A5003908A40008002008CD
:10064800DF00410884005F08303E831380000A30D1
:10065800C103AC00AD01AE01AF013C08B3003B08DB
:10066800B2003A08B1003908B00008002008BD07F8
:1006780021080318210FBE0722080318220FBF07FD
:1006880023080318230AC0074008B3003F08B20034
:100698003E08B1003D08B00008003C08A7003B0830
:1006A800A6003A08A5003908A40008003C08B300D1
:1006B8003B08B2003A08B1003908B0000800AD01A3
:1006C800AE01AF01BD000330BE01BF01C001A301EF
:1006D800A201A100E830A00008002F08BC002E08E5
:1006E800BB002D08BA002C08B9000800AF01AE0104
:1006F800AD00E830AC000800303E83138000C10A2A
:10070800410884000800303E8000C10A4108840086
:1007180008004108840020308000C10308002C082C
:10072800DF00410884005F0808003C083B043A04E5
:1007380039040800831203130C1CB72B761CA62B54
:100748007610B12B7B1CB22B7614761CAF2B831240
:1007580003130615B22B831203130611F3308E0010
:10076800FF308F000C100B1D2B2CFA0AD80A031926
:10077800D90AF90A7908F93A031D172C0030F9014A
:100788005302031DD12B00305202031DD12B7E30A2
:100798005102031DD12B3F3050020318DB2BD00A26
:1007A8000319D10A0319D20A0319D30AE32BCC017E
:1007B800CD01CE01CF01D001D101D201D30163080F
:1007C8000319E82BE303F82B2330E300F61CF61497
:1007D8005708CB005608CA005508C9005408C80075
:1007E800D401D501D601D7017708F0007808F100C7
:1007F800F201F3017008D407710803110318013ED0
:10080800031DD507720803110318013E031DD607FF
:10081800730803110318013E031DD707F701F801F8
:100828006008031DE003FB1C7B1C1D2CDE0B1D2C2C
:100838007B10E40803195C080319282C65080319C0
:10084800282CE50B282C8511063081000B118B1CF8
:100858006C2C7808193A6430031977060319372C79
:10086800F70A0319F80A00305B02083003195A0224
:100878000318412CDA0A0319DB0A02304F02031D60
:100888004F2CB7304E02031D4F2C3B304D02031D39
:100898004F2C63304C020318582CCC0A0319CD0A8C
:1008A8000319CE0A0319CF0AFB185F2CDD013C306F
:1008B800DE007B1C7B14640803196B2CDC08031D09
:1008C8006B2CE508031D6B2C06308515E5008B1095
:1008D80075088A00740E8300FE0E7E0E0900B401AE
:1008E800B501B601B7012F082E042D042C040319F5
:1008F800B22CB801B80AAF1B872C0310AC0DAD0D94
:10090800AE0DAF0D7E2C0310B40DB50DB60DB70DA1
:100918002F083302031D9A2C2E083202031D9A2C2D
:100928002D083102031D9A2C2C083002031CAC2C14
:100938002C08B0022D08031C2D0FB1022E08031C31
:100948002E0FB2022F08031C2F0FB302341403100A
:10095800AF0CAE0CAD0CAC0CB80B872C3708AF0045
:100968003608AE003508AD003408AC000800FF1B9F
:10097800C52C83137F1883170008840A0319FF0AFC
:10098800080004308A000408840A820700345334BB
:10099800743441345234743469344E344734003436
:1009A8005334303455344E346434203430344E3477
:1009B80000346234303430345334743420343034B6
:1009C8004E3400344334303455344E347434453462
:1009D800523400344734453469344734453452344A
:1009E8000034533469346C3445344E347434003430
:1009F80023082204210420040319312DA801A80A80
:100A0800A31B0C2D0310A00DA10DA20DA30D032DEA
:100A180023082702031D1A2D22082602031D1A2D5A
:100A280021082502031D1A2D20082402031C2B2D42
:100A38002008A4022108031C210FA5022208031C78
:100A4800220FA6022308031C230FA7020310A30CDE
:100A5800A20CA10CA00CA80B0C2D2708A30026089B
:100A6800A2002508A1002408A0000800A801A901E7
:100A7800AA01AB01201C542D2408A807250803113E
:100A88000318013E031DA907260803110318013E98
:100A9800031DAA07270803110318013E031DAB070E
:100AA8000310A40DA50DA60DA70D0310A30CA20CF1
:100AB800A10CA00C2308220421042004031D3E2DB0
:100AC8002B08A3002A08A2002908A1002808A000D2
:100AD8000800323083120510622630308600053057
:100AE800851485106226213085148510A300A30B78
:100AF8007B2D0530851485106226203086000D3048
:100B080085148510A400A40B872D283017260830DB
:100B180017260C3017260630172EA5000730A50516
:100B280005102508A4000310A40D0310A40D03103C
:100B3800240D40381726A601051426082307A4000B
:100B48008400000817260830A60A260203180800A1
:100B5800A02DA2000830A300A4012208A10007309C
:100B68000310A10CFF3E0310031DB52D240D210415
:100B7800A4000310A20D20082402031CC52D200880
:100B8800A402A30BB12D240808007730F6018400D5
:100B98007B30782644308313840067307826B83059
:100BA800FD000530FE00FF30FF00A030840057260E
:100BB8002030E700E800E900EA00EB0183010B2898
:100BC800A100A30120080319FD2DA201A20AA01B60
:100BD800F02D0310A00DEA2D0310A30D200821020B
:100BE800031CFA2D2008A10223140310A00CA20B49
:100BF800F02D2308080004340E340E340E340E345D
:100C08001F340434003400341F34083404340234EC
:100C1800043408341F3400340034113411341334CC
:100C28001D3410341034A20026268514851022089D
:100C3800A000200E26260D3085148510A100A10BDA
:100C4800232E0800F039A00006080F39200486007A
:100C5800080005142408FF0023088400BB2400387A
:100C6800031908002408FF0023088400BB24172662
:100C7800A30A0319A40A2E2E2108A3002008A20003
:100C88000310A30CA20C0310A30CA20C22089500BD
:100C9800CF309705200EF0393039970408007E08C8
:100CA8008A007F08820053268000840A04087D0693
:100CB80003190034FF0A0319FE0A572EA000043056
:100CC800A1005330A200A20B672EA10B652EA00B2A
:100CD800632E0800A000FA018312031320087A0289
:100CE800031808000000702E64008001840A0406BE
:100CF800031900340406792E8312A3000510803EE0
:100D0800172E0130051017260230622EA300051495
:020D1800172E94
:02400E0038FF79
:00000001FF
