:020000000A28CC
:10000800FE00030EF8000A08F900C82B602E8316BC
:1000180085010330831285118316860007307A1014
:10002800831206119F00F0308B0043308316810045
:100038001130831290000F309700FF308316920022
:1000480006308312920083160C14FB147B14B62519
:10005800B030CB000030F725A030CB000130F725B9
:10006800A830CB000230F7252330C400D030C800B8
:100078000230C90086260630810083169B013F3076
:100088009C051C141A088312C50002304502031C83
:100098004F28C501C50A86186B284508013CC500CC
:1000A80083169C1854289B018312450883169A00CE
:1000B8003F309C0503108B1B031455308B131C1504
:1000C8009D00AA309D009C141C1103188B1700304A
:1000D800D9261C30CB008030CC0073264030D9267E
:1000E8002A30CB008030CC0073262230440203181B
:1000F8007928DE26861886281330CB008030CC007D
:1001080073268D280130CB008030CC007326FB107D
:100118007B104030D9264508031994280A309528C1
:100128002330CB008030CC007326203044020318E3
:100138009928DE26DC30B6000230B7007A1EA628E1
:100148000130A7280030EA00FA118618FA15FA1DBE
:10015800AF280130B0280030831203136A06031950
:10016800EE280330C726861CBB280130BC28003087
:10017800EA00FA1DC1280130C22800306A06031DB2
:10018800EA28FA19E428BA01BB0100303D027D30A3
:1001980003193C020318DA28C308031DD628C30133
:1001A800C30AD728C301440AC200E628D030C800D1
:1001B8000230C9008626DC30B6000230B700E628D7
:1001C800BC01BD017A12FA197A16EE28FA117A1EC4
:1001D800EE28FA15FA1918290130831203133B0285
:1001E800773003193A02031C18290430FA067A19E1
:1001F8000129C801C90186260A29D030C800023061
:10020800C9008626DC30B6000230B700450803195D
:100218001629BE08031D1629C608031D16291830FD
:100228008515C600BA01BB018312031342084406B0
:100238000319A228FA184D292330EA0044086A0253
:10024800D400D501031CD503D601D51BD603560807
:10025800D7003308CB003208CA003108C90030087B
:10026800C8002430CC00CD01CE01CF0183254B0836
:10027800DB004A08DA004908D9004808D800BE243B
:100288005708A3005608A2005508A1005408A0006A
:1002980085292430D400D501D601D7014408C800E7
:1002A800C901CA01CB012708CF002608CE002508BE
:1002B800CD002408CC0083254B08DB004A08DA006F
:1002C8004908D9004808D800BE245708A300560892
:1002D800A2005508A1005408A0003008A007310862
:1002E80003110318013E031DA10732080311031867
:1002F800013E031DA207330803110318013E031D25
:10030800A3074408C200C308031DC4290030D92626
:100318002308E4002208E3002108E2002008E100A5
:10032800962200302302031DA32900302202031D58
:10033800A32900302102031DA32932302002031C07
:10034800A7290130A8292030E3264030D926C10149
:10035800083041020318C1294108EA00EB016B0883
:100368003902031DB9296A083802031CBD29FF3068
:10037800BE292D30E326C10AAC29B801B901602A8B
:10038800430B602A0030D9260E30D701D601D5009C
:100398001030D4002F08DB002E08DA002D08D90011
:1003A8002C08D800BE245408C1000A304102031C9E
:1003B800E3290A30C80041082F26303EE4292030BE
:1003C800E3260A30C80041081326303EE3263A30B7
:1003D800E3263C30D400D501D601D7012F08CF0041
:1003E8002E08CE002D08CD002C08CC000E30CB01F5
:1003F800CA01C9001030C80045254B08DB004A086F
:10040800DA004908D9004808D800BE245408C100B9
:100418000A30C80041082F26303EE3260A30C800BB
:1004280041081326303EE3263A30E3263C30C80024
:10043800C901CA01CB012F08CF002E08CE002D0814
:10044800CD002C08CC0045254808C1000A30C8005A
:1004580041082F26303EE3260A30C80041081326FB
:10046800303EE3264030D9260230E3260E30D7014D
:10047800D601D5001030D4002B08CB002A08CA00BA
:100488002908C9002808C8002430CC00CD01CE01B5
:10049800CF0183254B08DB004A08DA004908D90058
:1004A8004808D800BE245708E4005608E300550859
:1004B800E2005408E100962200302302031D6E2A50
:1004C80000302202031D6E2A00302102031D6E2A0D
:1004D80032302002031C7E2A45080319822ABE08EE
:1004E800031D822AC708031D822A0530BE00C701E2
:1004F800C70A822A47080319822AC7013E08031936
:10050800892A3C308515C600BE03FB1C7B18A2282F
:100518000630BF0A3F02031CA228BF013C30FC0082
:100528007B14A228B830E90000306402031DA62A13
:1005380000306302031DA62A07306202031DA62AA3
:10054800D03061020318C02A0330E9073F2345254C
:100558006423BE249B23C3230319B42AAA2ABD23D8
:10056800B83069020318B32AB830CB00CC0173261F
:100578002030E32600303C2B00306402031DCE2AD5
:1005880000306302031DCE2A27306202031DCE2AE3
:10059800103061020318F42A0330A4238423BE24F4
:1005A800B123AA232E3080000A30E90AD40005308E
:1005B8008D237B2345254D23BE249B236908840076
:1005C8000A30D400D501D601D7018423BE245408AB
:1005D800B7233F2345254808303E8000E90A352BDC
:1005E80000306402031D022B01306302031D022B3D
:1005F80086306202031D022BA03061020330A4235F
:1006080084230318232BBE245408C10069088400DE
:100618000A30C80041082F26AA230A30C80041081A
:100628001326B7232E3080006430E90AD400323014
:100638008D237B2345254D23BE24B123F02ABE24D8
:100648009B230330E9073F2345256423BE249B23CE
:10065800C3230319312B272BBD23B8306902031894
:10066800302BB830CB00CC0173262030E3266D3018
:10067800E3265230E32E0A30C800C901CA01CB0173
:100688006408CF006308CE006208CD006108CC0082
:1006980008004808E50749080318490FE6074A080B
:1006A80003184A0FE7074B0803184B0AE8076808BE
:1006B800DB006708DA006608D9006508D80008007A
:1006C8004808C100690884004108303E831380004F
:1006D8000A30E903D400D501D601D7016408DB004C
:1006E8006308DA006208D9006108D80008006408C5
:1006F800CF006308CE006208CD006108CC00080076
:100708006408DB006308DA006208D9006108D800D1
:100718000800D501D601D701E5000330E601E7015D
:10072800E801CB01CA01C900E830C8000800570831
:10073800E4005608E3005508E2005408E100080008
:10074800D701D601D500E830D4000800303E831325
:100758008000E90A6908840008005408C100690893
:10076800840041080800303E8000E90A69088400D6
:1007780008006908840020308000E9030800640844
:100788006304620461040800831203130C1CE12B48
:100798007A1CD02B7A10DB2B7B1CDC2B7A147A1C6E
:1007A800D92B831203130615DC2B831203130611AE
:1007B800F8308E00FF308F000C100B1D762CFD0AD0
:1007C80009303B02C43003193A020318EE2BBA0A67
:1007D8000319BB0A09303D02C43003193C0203184F
:1007E800F82BBC0A0319BD0AC00A4008F43A031DD5
:1007F8004F2C0030C0012F02031D0C2C00302E029C
:10080800031D0C2C7E302D02031D0C2C3F302C02B6
:100818000318162CAC0A0319AD0A0319AE0A0319FA
:10082800AF0A1E2CA801A901AA01AB01AC01AD01B8
:10083800AE01AF0144080319232CC403332C233021
:10084800C400FA1CFA143308A7003208A6003108BD
:10085800A5003008A400B001B101B201B301340809
:10086800F4003508F500F601F7017408B0077508BB
:1008780003110318013E031DB1077608031103187D
:10088800013E031DB207770803110318013E031D3B
:10089800B307B401B5017A19622C37083604031975
:1008A800622C0130B6020030031CB703B7023708C8
:1008B8003604031D622CF001F1019926FB1C7B1CF8
:1008C800682CFC0B682C7B10C50803193E0803191B
:1008D800732C46080319732CC60B732C851106302C
:1008E80081000B118B1CB72C3508193A6430031999
:1008F80034060319822CB40A0319B50A00303902E8
:1009080008300319380203188C2CB80A0319B90ADD
:1009180002302B02031D9A2CB7302A02031D9A2C91
:100928003B302902031D9A2C633028020318A32C9C
:10093800A80A0319A90A0319AA0A0319AB0AFB187A
:10094800AA2CBF013C30FC007B1C7B144508031912
:10095800B62CBE08031DB62CC608031DB62C0630DF
:100968008515C6008B1079088A00780E8300FE0E64
:100978007E0E0900DC01DD01DE01DF0157085604A7
:10098800550454040319FD2CE001E00AD71BD22CAE
:100998000310D40DD50DD60DD70DC92C0310DC0DC1
:1009A800DD0DDE0DDF0D57085B02031DE52C560833
:1009B8005A02031DE52C55085902031DE52C54085D
:1009C8005802031CF72C5408D8025508031C550F6D
:1009D800D9025608031C560FDA025708031C570F92
:1009E800DB025C140310D70CD60CD50CD40CE00B2E
:1009F800D22C5F08D7005E08D6005D08D5005C08D9
:100A0800D4000800FF1B102D83137F1883170008DC
:100A1800840A0319FF0A080005308A000408840ABA
:100A28008207003453347434413452347434693492
:100A38004E34473400345334303455344E346434EF
:100A4800203430344E34003462343034303453344B
:100A58007434203430344E340034473445346934E7
:100A68004734453452340034533469346C34453493
:100A78004E3474340034763431342E3433343534CF
:100A880000344B084A044904480403197A2DD0015C
:100A9800D00ACB1B552D0310C80DC90DCA0DCB0D9F
:100AA8004C2D4B084F02031D632D4A084E02031DAF
:100AB800632D49084D02031D632D48084C02031C91
:100AC800742D4808CC024908031C490FCD024A0876
:100AD800031C4A0FCE024B08031C4B0FCF02031016
:100AE800CB0CCA0CC90CC80CD00B552D4F08CB0029
:100AF8004E08CA004D08C9004C08C8000800D001BB
:100B0800D101D201D301481C9D2D4C08D0074D08B6
:100B180003110318013E031DD1074E0803110318E2
:100B2800013E031DD2074F0803110318013E031DA0
:100B3800D3070310CC0DCD0DCE0DCF0D0310CB0C6C
:100B4800CA0CC90CC80C4B084A0449044804031DC4
:100B5800872D5308CB005208CA005108C900500815
:100B6800C8000800323083120510BB2630308600DA
:100B7800053085148510BB26213085148510CB00DF
:100B8800CB0BC42D053085148510BB26203086007C
:100B98000D3085148510CC00CC0BD02D28304A267A
:100BA80008304A260C304A2606304A2E04340E34C1
:100BB8000E340E340E341F340434003400341F3421
:100BC800083404340234043408341F340034003444
:100BD8001134113413341D341034103420342034BB
:100BE800203420340034CD000730CD0505104D08E1
:100BF800CC000310CC0D0310CC0D03104C0D403865
:100C08004A26CE0105144E084B07CC008400000884
:100C18004A260830CE0A4E0203180800062ECA00DB
:100C28000830CB00CC014A08C90007300310C90CB2
:100C3800FF3E0310031D1B2E4C0D4904CC0003106E
:100C4800CA0D48084C02031C2B2E4808CC02CB0BBB
:100C5800172E4C080800C900CB0148080319482E74
:100C6800CA01CA0AC81B3B2E0310C80D352E031033
:100C7800CB0D48084902031C452E4808C9024B14ED
:100C88000310C80CCA0B3B2E4B080800CA00592693
:100C9800851485104A08C800480E59260D30851459
:100CA8008510C900C90B562E0800F039C80006087F
:100CB8000F394804860008002030FA01FC01FD01C4
:100CC800831384004830D126BD30FD000530FE0076
:100CD800DA30FF00A0308400B02683010B28051409
:100CE8004C08FF004B08840006250038031908004B
:100CF8004C08FF004B08840006254A26CB0A031936
:100D0800CC0A742E4908CB004808CA000310CB0C43
:100D1800CA0C0310CB0CCA0C4A089500CF309705B3
:100D2800480EF0393039970408007108F30070084C
:100D3800F2000310F30CF20C0310F30CF20C72081F
:100D48009500CF309705700EF039303997040800B8
:100D58007E088A007F088200AC268000840A040886
:100D68007D0603190034FF0A0319FE0AB02EC800D5
:100D78000430C9005330CA00CA0BC02EC90BBE2E9E
:100D8800C80BBC2E0800C800FD01831203134808D5
:100D98007D02031808000000C92E64008001840A3F
:100DA8000406031900340406D22E8312CB00051062
:100DB800803E4A2E013005104A260230BB2ECB0059
:040DC80005144A2E96
:02400E0038FF79
:00000001FF
