:020000000A28CC
:10000800FE00030EF8000A08F9009E2B272E83161F
:1000180085010330831285118316860007307A1014
:10002800831206119F00F0308B0043308316810045
:100038001130831290000F309700FF308316920022
:1000480006308312920083160C14FB147B14B0251F
:10005800B030C9000030D425A030C9000130D42503
:10006800A830C9000230D4252330C300D030C600E0
:100078000230C70081260630810083169B013F307D
:100088009C051C141A088312C40002304402031C85
:100098004F28C401C40A86186B284408013CC400D0
:1000A80083169C1854289B018312440883169A00CF
:1000B8003F309C0503108B1B031455308B131C1504
:1000C8009D00AA309D009C141C1103188B1700304A
:1000D800D4261C30C9008030CA006E264030D42691
:1000E8002A30C9008030CA006E2622304302031825
:1000F8007928D926861886281330C9008030CA0086
:100108006E268D280130C9008030CA006E26FB108B
:100118007B104030D4264408031994280A309528C7
:100128002330C9008030CA006E26203043020318ED
:100138009928D926DC30B8000230B900FA1DA62863
:100148000130A7280030E8007A1186187A157A1D40
:10015800AF280130B0280030831203136806031952
:10016800CF280330C226861CBB280130BC280030AB
:10017800E8007A1DC1280130C22800306806031D36
:10018800CB28B601B701FA117A19FA15CF287A11D6
:10019800FA1DCF287A157A19EE28D0308312031366
:1001A800C6000230C7008126DC30B8000230B90032
:1001B80001303702773003193602031CEE28C208D3
:1001C800031DE928C201C20AEA28C201B601B70123
:1001D800430AC10083120313410843060319A228E6
:1001E800FA1823292330E80043086802D200D30113
:1001F800031CD303D401D31BD4035408D5003308FC
:10020800C9003208C8003108C7003008C6002430C9
:10021800CA00CB01CC01CD017D254908D900480889
:10022800D8004708D7004608D60081245508A300FF
:100238005408A2005308A1005208A0005B292430EA
:10024800D200D301D401D5014308C600C701C801B3
:10025800C9012708CD002608CC002508CB002408B2
:10026800CA007D254908D9004808D8004708D700A2
:100278004608D60081245508A3005408A200530854
:10028800A1005208A0003008A00731080311031884
:10029800013E031DA107320803110318013E031D87
:1002A800A207330803110318013E031DA3074308DF
:1002B800C100C208031D9A290030D4262308E20091
:1002C8002208E1002108E0002008DF006C2200304D
:1002D8002302031D792900302202031D79290030E9
:1002E8002102031D792932302002031C7D290130A7
:1002F8007E292030DE264030D426BF0108303F0258
:10030800031897293F08E800E90169083B02031D23
:100318008F2968083A02031C9329FF3094292D304D
:10032800DE26BF0A8229BA01BB01362A420B362AC9
:100338000030D4260E30D501D401D3001030D200BD
:100348002F08D9002E08D8002D08D7002C08D60071
:1003580081245208BF000A303F02031CB9290A3021
:10036800C6003F080C26303EBA292030DE260A3067
:10037800C6003F08F025303EDE263A30DE263C3007
:10038800D200D301D401D5012F08CD002E08CC000E
:100398002D08CB002C08CA000E30C901C801C700BF
:1003A8001030C6003F254908D9004808D80047083A
:1003B800D7004608D60081245208BF000A30C6007C
:1003C8003F080C26303EDE260A30C6003F08F025DE
:1003D800303EDE263A30DE263C30C600C701C80172
:1003E800C9012F08CD002E08CC002D08CB002C0801
:1003F800CA003F254608BF000A30C6003F080C2641
:10040800303EDE260A30C6003F08F025303EDE26A4
:100418004030D4260230DE260E30D501D401D30078
:100428001030D2002B08C9002A08C8002908C700C4
:100438002808C6002430CA00CB01CC01CD017D2597
:100448004908D9004808D8004708D7004608D60008
:1004580081245508E2005408E1005308E0005208DE
:10046800DF006C2200302302031D442A00302202E0
:10047800031D442A00302102031D442A3230200281
:10048800031C542A44080319582ABC08031D582A77
:10049800C508031D582A0530BC00C501C50A582ADD
:1004A80045080319582AC5013C0803195F2A3C303E
:1004B8008515FD00BC03FB1C7B18A2280630BD0A6D
:1004C8003D02031CA228BD013C30FC007B14A2287D
:1004D8006A30E70000306202031D7C2A00306102A6
:1004E800031D7C2A07306002031D7C2AD0305F027E
:1004F8000318962A0330E70715233F252323812471
:100508007123992303198A2A802A93236A30670260
:100518000318892A6A30C900CA016E262030DE26EF
:100528000030122B00306202031DA42A0030610241
:10053800031DA42A27306002031DA42A10305F027D
:100548000318CA2A03307A235A2381248723802355
:100558002E3080000A30E70AD20005306323512389
:100568003F253A2381247123670884000A30D2008A
:10057800D301D401D5015A23812452088D23152390
:100588003F254608303E8000E70A0B2B0030620208
:10059800031DD82A01306102031DD82A8630600263
:1005A800031DD82AA0305F0203307A235A23031888
:1005B800F92A81245208BF00670884000A30C6005F
:1005C8003F080C2680230A30C6003F08F0258D23FB
:1005D8002E3080006430E70AD20032306323512382
:1005E8003F253A2381248723C62A81247123033097
:1005F800E70715233F252323812471239923031912
:10060800072BFD2A93236A3067020318062B6A30EA
:10061800C900CA016E262030DE266D30DE26523033
:10062800DE2E0A30C600C701C801C9016208CD0024
:100638006108CC006008CB005F08CA0008004608C3
:10064800BF00670884003F08303E831380000A30EB
:10065800E703D200D301D401D5016208D9006108AB
:10066800D8006008D7005F08D60008004608E307EE
:1006780047080318470FE40748080318480FE50719
:1006880049080318490AE6076608D9006508D8002A
:100698006408D7006308D60008006208CD00610826
:1006A800CC006008CB005F08CA0008006208D900C7
:1006B8006108D8006008D7005F08D6000800D30199
:1006C800D401D501E3000330E401E501E601C901E5
:1006D800C801C700E830C60008005508E200540801
:1006E800E1005308E0005208DF000800D501D401FA
:1006F800D300E830D2000800303E83138000E70AB8
:100708006708840008005208BF00670884003F0893
:100718000800303E8000E70A670884000800670880
:10072800840020308000E703080062086104600448
:100738005F040800831203130C1CB72B7A1CA62B2A
:100748007A10B12B7B1CB22B7A147A1CAF2B831234
:1007580003130615B22B831203130611F8308E000B
:10076800FF308F000C100B1D392CC00AB60A031974
:10077800B70ABE0A3E08F43A031D142C0030BE0125
:100788002F02031DD12B00302E02031DD12B7E30EA
:100798002D02031DD12B3F302C020318DB2BAC0A92
:1007A8000319AD0A0319AE0A0319AF0AE32BA8010E
:1007B800A901AA01AB01AC01AD01AE01AF0143082B
:1007C8000319E82BC303F82B2330C300FA1CFA14CF
:1007D8003308A7003208A6003108A5003008A40095
:1007E800B001B101B201B3013408F4003508F500D5
:1007F800F601F7017408B007750803110318013EE4
:10080800031DB107760803110318013E031DB20743
:10081800770803110318013E031DB307B401B5019E
:10082800390838040319252C0130B8020030031C9C
:10083800B903B90239083804031D252CF001F10168
:100848009426FB1C7B1C2B2CFC0B2B2C7B10C4082C
:1008580003193C080319362C7D080319362CFD0BA7
:10086800362C8511063081000B118B1C7A2C35082B
:10087800193A6430031934060319452CB40A0319CC
:10088800B50A00303B02083003193A0203184F2C0E
:10089800BA0A0319BB0A02302B02031D5D2CB730BC
:1008A8002A02031D5D2C3B302902031D5D2C633099
:1008B80028020318662CA80A0319A90A0319AA0A08
:1008C8000319AB0AFB186D2CBD013C30FC007B1CE6
:1008D8007B1444080319792CBC08031D792CFD08E6
:1008E800031D792C06308515FD008B1079088A00C8
:1008F800780E8300FE0E7E0E0900DA01DB01DC01B2
:10090800DD0155085404530452040319C02CDE01B8
:10091800DE0AD51B952C0310D20DD30DD40DD50DA1
:100928008C2C0310DA0DDB0DDC0DDD0D550859029A
:10093800031DA82C54085802031DA82C530857025D
:10094800031DA82C52085602031CBA2C5208D602C2
:100958005308031C530FD7025408031C540FD80222
:100968005508031C550FD9025A140310D50CD40C82
:10097800D30CD20CDE0B952C5D08D5005C08D40096
:0A0988005B08D3005A08D2000800F3
:100A0000FF1B0A2D83137F1883170008840A03191C
:100A1000FF0A080005308A000408840A82070034AF
:100A20005334743441345234743469344E3447345A
:100A300000345334303455344E346434203430343C
:100A40004E3400346234303430345334743420340F
:100A500030344E34003447344534693447344534F7
:100A600052340034533469346C3445344E34743465
:100A70000034763431342E3433343434003449087D
:100A80004804470446040319742DCE01CE0AC91B3D
:100A90004F2D0310C60DC70DC80DC90D462D4908B1
:100AA0004D02031D5D2D48084C02031D5D2D4708B6
:100AB0004B02031D5D2D46084A02031C6E2D46089D
:100AC000CA024708031C470FCB024808031C480F03
:100AD000CC024908031C490FCD020310C90CC80CF5
:100AE000C70CC60CCE0B4F2D4D08C9004C08C800D2
:100AF0004B08C7004A08C6000800CE01CF01D0014C
:100B0000D101461C972D4A08CE074B080311031844
:100B1000013E031DCF074C0803110318013E031DBE
:100B2000D0074D0803110318013E031DD107031020
:100B3000CA0DCB0DCC0DCD0D0310C90CC80CC70CC4
:100B4000C60C4908480447044604031D812D51087A
:100B5000C9005008C8004F08C7004E08C60008006A
:100B6000323083120510B6263030860005308514E9
:100B70008510B626213085148510C900C90BBE2DFD
:100B8000053085148510B626203086000D3085147A
:100B90008510CA00CA0BCA2D28305826083058269E
:100BA0000C3058260630582ECB000730CB050510E8
:100BB0004B08CA000310CA0D0310CA0D03104A0DDA
:100BC00040385826CC0105144C084907CA00840057
:100BD000000858260830CC0A4C0203180800E32D00
:100BE000C8000830C900CA014808C7000730031010
:100BF000C70CFF3E0310031DF82D4A0D4704CA0021
:100C00000310C80D46084A02031C082E4608CA02F3
:100C1000C90BF42D4A080800C700C901460803198A
:100C2000252EC801C80AC61B182E0310C60D122E89
:100C30000310C90D46084702031C222E4608C702AE
:100C400049140310C60CC80B182E490808002030A0
:100C5000FA01FC01FD01831384004630CC26B83034
:100C6000FD000630FE004030FF00A0308400AB26BF
:100C70002030EA00EB00EC00ED00EE0183010B28D0
:100C800004340E340E340E340E341F340434003465
:100C900000341F34083404340234043408341F345C
:100CA000003400341134113413341D341034103432
:100CB000C8006726851485104808C600460E6726BA
:100CC0000D3085148510C700C70B642E0800F0395D
:100CD000C60006080F3946048600080005144A08B5
:100CE000FF004908840000250038031908004A085D
:100CF000FF004908840000255826C90A0319CA0ABA
:100D00006F2E4708C9004608C8000310C90CC80C5C
:100D10000310C90CC80C48089500CF309705460E43
:100D2000F0393039970408007108F3007008F200B8
:100D30000310F30CF20C0310F30CF20C7208950084
:100D4000CF309705700EF0393039970408007E08CF
:100D50008A007F088200A7268000840A04087D0696
:100D600003190034FF0A0319FE0AAB2EC600043033
:100D7000C7005330C800C80BBB2EC70BB92EC60B1B
:100D8000B72E0800C600C0018312031346084002B4
:100D9000031808000000C42E64008001840A0406C1
:100DA000031900340406CD2E8312C9000510803EBD
:100DB000582E0130051058260230B62EC9000514F1
:020DC000582EAB
:02400E0038FF79
:00000001FF
