:10000000830100308A007C28FC0003088301D200B1
:100010007008D1007108CD007208CF007308CE00BF
:100020000B1D51280B110630831203138100A10B05
:100030001A280611A20A2208FA3A031D5128A20121
:10004000A60803192528A6033928A018292827302F
:100050002A28C730A600201C20143508B100360815
:10006000B2003708B3003808B400B501B601B701D3
:10007000B8012A08F1002908F000F201F301B507E0
:1000800071080318710FB60772080318720FB707CB
:1000900073080318730AB807A901AA01A408031D6D
:1000A000A4038B1C6D28831203130615A101A10A5A
:1000B0002A08193A64300319290603196228A90A83
:1000C0000319AA0A00302C02103003192B0203185E
:1000D0006C28AB0A0319AC0A8B1003138312510866
:1000E000F0004D08F1004F08F2004E08F3005208EE
:1000F0008300FC0E7C0E0900213084004B308920E7
:1001000020308400213089208301F12B04068001F6
:10011000840A0406031D8628003483120313CB00CF
:10012000CC1B9B284C1BA3284C088A004B08CB0AED
:100130000319CC0A820083134C1883174B08CB0A8F
:100140008400000808006F34003473346F34663460
:10015000743477346134723465340034A334E33456
:10016000B834BF34653400344B34003454344F3425
:100170005434483445344D34413400343934003437
:1001800038340034373400343634003435340034F5
:1001900034340034333400343234003431340034F5
:1001A0002E34003454343D343234303430346334FB
:1001B0006534BA34003454343D343434303420346B
:1001C00063346534BA34003482072034BC3450348C
:1001D000C034003482072034BC34BA345034003484
:0401E00082070A3454
:100630008301B9000514682B8301BD000510803EBD
:10064000682B83010510013068230230332BF00042
:100650000030711870070310F00D0310F10CF10851
:1006600003190800292B8301BE000430BF0053305A
:10067000C000C00B392BBF0B372BBE0B352B08002E
:10068000830105144B2B4808CC004708C70A0319FF
:10069000C80A8D2068234808CC0047088D20003800
:1006A00003190800432BF401F5010310F30CF20CBD
:1006B000031C612B7008F40771080318710AF50711
:1006C0000310F00DF10D7208730403190034552B5B
:1006D0008301C900F039F00006080F397004860064
:1006E00085148510490EF039F00006080F397004A2
:1006F0008600851485100D30CA00CA0B7D2B0800BA
:100700008301051032303323303086008514851084
:1007100005303323851485102130BD00BD0B8E2B91
:10072000851485100530332320308600851485100C
:100730000D30BD00BD0B9A2B28306823083068238C
:100740000C3068230630682B2D308301C300C400B1
:10075000C500C6014330C2006430F200F3013E0818
:10076000F1003D08F0000D277408C1006430F2006C
:10077000F3014108F000F10153233E08F1003D0868
:10078000F0007408F002031CF1037508F1020A304E
:10079000F2000030F3010D277408C0000A30F100A8
:1007A000410827234007F0000A30F1007008272392
:1007B0003D02BF004208840083134108303E8000A0
:1007C000C20A420884004008303E8000C20A420843
:1007D00084003F08303E80004330C7008030C800AE
:1007E000402B8316031385010330860007308312E4
:1007F0009F008316811201178B160B168023831618
:10080000811101118114011483122010A010A9017B
:10081000AA01B501B601B701B801AB01AC01A20153
:100820008618162CC730A600A014182C2730A60056
:1008300005118511063081008B17A01C2F2C432C2D
:10084000061500301C23B630C7000030C800402316
:1008500040301C23A530C7000030C800402327309B
:100860002602031C472C202C061500301C23B63012
:10087000C7000030C800402340301C23A530C7000B
:100880000030C8004023C73026020318342C21232F
:10089000A01C612C7C2C00301C23DB30C7000030F6
:1008A000C800402340301C23AE30C7000030C800D1
:1008B000402326086B3C1C23D030C7000030C80002
:1008C000402324302602031C802C4B2C00301C2398
:1008D000D230C7000030C800402340301C23AE3067
:1008E000C7000030C800402326080B3C1C23D03032
:1008F000C7000030C8004023C43026020318662C0D
:1009000021238618852C8515862C85110A30A40094
:10091000AB01AC0186188F2C05150A30A400250800
:1009200026060319082F2018D62CA018B62C28301C
:10093000F400F501F601F7013508F0003608F10082
:100940003708F2003808F300C3272730CB00CC016A
:100950002608CB02031CCC034B08F4004C08F5001E
:100960000030F51BFF30F600F7001F2DC830F400F3
:10097000F501F601F7013508F0003608F1003708F7
:10098000F2003808F300C327C730CB00CC0126089B
:10099000CB02031CCC034B08F4004C08F5000030DC
:1009A000F51BFF30F600F7004727192D3108F4003A
:1009B0003208F5003308F6003408F7002608F00086
:1009C000F101F201F301A018032DC3272830F40030
:1009D0000030F501F601F701472735087007AD0033
:1009E0007108AE0036080318360FAE077208AF0064
:1009F00037080318370FAF077308B000380803181B
:100A0000380FB007282DC327C830F4000030F50197
:100A1000F601F70147273508F00736080318360FA7
:100A2000F10737080318370FF20738080318380A98
:100A3000F3070530F4000030F501F601F701472710
:100A40007008AD007108AE007208AF007308B00006
:100A50002608A500212300303002031D392D003067
:100A60002F02031D392D03302E02031D392DE830CE
:100A70002D0203183E2D212300301C2300303002AC
:100A8000031D4C2D00302F02031D4C2D03302E0270
:100A9000031D4C2DE8302D02031C562D2123003060
:100AA0001C23CE30C7000030C80040230030300285
:100AB000031D642D00302F02031D642D07302E020C
:100AC000031D642DD0302D02031C6E2D2123003018
:100AD0001C23CC30C7000030C80040230030300257
:100AE000031D7C2D00302F02031D7C2D0B302E02A8
:100AF000031D7C2DB8302D02031C862D21230030D0
:100B00001C23CA30C7000030C80040230030300228
:100B1000031D942D00302F02031D942D0F302E0243
:100B2000031D942DA0302D02031C9E2D2123003087
:100B30001C23C830C7000030C800402300303002FA
:100B4000031DAC2D00302F02031DAC2D13302E02DF
:100B5000031DAC2D88302D02031CB62D212300303F
:100B60001C23C630C7000030C800402300303002CC
:100B7000031DC42D00302F02031DC42D17302E027B
:100B8000031DC42D70302D02031CCE2D21230030F7
:100B90001C23C430C7000030C8004023003030029E
:100BA000031DDC2D00302F02031DDC2D1B302E0217
:100BB000031DDC2D58302D02031CE62D21230030AF
:100BC0001C23C230C7000030C80040230030300270
:100BD000031DF42D00302F02031DF42D1F302E02B3
:100BE000031DF42D40302D02031CFE2D2123003067
:100BF0001C23C030C7000030C80040230030300242
:100C0000031D0C2E00302F02031D0C2E23302E024C
:100C1000031D0C2E28302D02031C162E212300301C
:100C20001C23BE30C7000030C8004023E830F40069
:100C30000330F500F601F7012D08F0002E08F10051
:100C40002F08F2003008F30047277008B900710838
:100C5000BA007208BB007308BC003A08F1003908FA
:100C6000F000E830F2000330F30053232E08F100C7
:100C70002D08F0007408F002031CF1037508F1025E
:100C80007008BD007108BE00A423EB30C70000301F
:100C9000C800402300303002031D582E00302F02C0
:100CA000031D582E27302E02031D582E10302D0202
:100CB000031C762E212300301C23E730F400033080
:100CC000F500F601F7012D08F0002E08F1002F08BD
:100CD000F2003008F30047277008BD007108BE001D
:100CE000A423E530C7000030C8004023003038029C
:100CF000031D842E00303702031D842E033036027C
:100D0000031D842EE830350203188D2E40301C233D
:100D10003508BD003608BE00A4230030380200307C
:100D2000031D9C2E3702031D9B2E03303602031D2C
:100D30009B2EE83035020030031CC82E3802031DFC
:100D4000AB2E00303702031DAB2E27303602031DB9
:100D5000AB2E103035020318C72E40301C230A304A
:100D6000F400F501F601F7013508F0003608F1004E
:100D70003708F2003808F30047277008BD007108F3
:100D8000BE00A423A330C7000030C80040230030B9
:100D90003802031DD52E00303702031DD52E273013
:100DA0003602031DD52E10303502031CF22E4030C2
:100DB0001C23E730F4000330F500F601F701350895
:100DC000F0003608F1003708F2003808F300472732
:100DD0007008BD007108BE00A423B430C700003005
:100DE000C800402344301C232608BD00BE01A423B4
:100DF00000303002031D062F00302F02031D062F86
:100E000000302E02031D062F50302D0203188515C9
:100E1000A408031D8A2C05118A2CF601F401F501A2
:100E200072087304031D172FF001F10100341F3005
:100E3000F6040310F60AF20DF30D031C1A2FF30C3F
:100E4000F20C73087102031D272F72087002031C35
:100E50002F2F7208F0027308031C730AF102F40DBD
:100E6000F50DF60BF61A1F2FF61F3B2FF409F40AA7
:100E70000319F503F5097408F2007508F300761FED
:100E80000034F009F00A0319F103F1090034840178
:100E900083120313D001F801F901FA01FB01740870
:100EA0007504760477040319582FC030D005632FDA
:100EB000F001F101F201F301F12F0310F40DF50D32
:100EC000F60DF70DD00AF71F5D2FD00A0310F80DAD
:100ED000F90DFA0DFB0D77087302031D792F7608C3
:100EE0007202031D792F75087102031D792F740892
:100EF0007002031C8B2F78147408F0027508031C11
:100F0000750FF1027608031C760FF2027708031CB6
:100F1000770FF3020310F70CF60CF50CF40CD0036A
:100F200050083F39031D662F501FA32F0310FF30B9
:100F3000F007F009031CF107F109031CF207F2099D
:100F4000031CF307F3097008F4007108F500720838
:100F5000F6007308F7007808F0007908F1007A08C5
:100F6000F2007B08F300D01FF12F0310FF30F007D1
:100F7000F009031CF107F109031CF207F209031C35
:100F8000F307F309F12F84017008F8007108F900E4
:100F90007208FA007308FB00F201F301F001F1019D
:100FA0000310FB0CFA0CF90CF80C031CE52F740869
:100FB000F00775080318750FF10776080318760F08
:100FC000F20777080318770FF307780879047A0493
:100FD0007B040319F12F0310F40DF50DF60DF70D39
:100FE000D02F84080319003473088000840372082A
:100FF000800084037108800084037008800000343E
:00000001FF
