:10000000830100308A0065288C0003088301C60044
:100010003308C4003408C5003508C2003608C300E0
:100020000B1D49280B110630831281008E0A0E0821
:10003000F93A031D49288E019208031921289203D9
:100040003128273092000D1C0D141D0899001E0840
:100050009A001F089B0020089C009D019E019F01A3
:10006000A0011408B4001308B300B501B6019D0740
:1000700034080318340F9E0735080318350F9F07FF
:1000800036080318360AA007930194019008031D4F
:10009000900383128B1C58281408193A64300319F2
:1000A000130603195628930A0319940A8B10831216
:1000B0004408B3004508B4004208B5004308B60040
:1000C000460883008C0E0C0E09000E30840033307D
:1000D00072200D3084000E3072208301A3290406A3
:1000E0008001840A0406031D6F2800348312BF00B8
:1000F000C01B812840088A003F08BF0A0319C00AB4
:1001000082008313401883173F08BF0A8400000849
:10011000080073346F346634743477346134723465
:100120006534003457344134493454340034543441
:100130004F345434483445344D3441340034313430
:100140000034303400342E340034820720346D34CF
:0801500052340034820703342D
:100186008312A5000514831217298312A5000510F2
:10019600803E83121729831205100130831217211E
:1001A6000230E128B3000030341833070310B30DD2
:1001B6000310B40CB40803190800D7288312A6004C
:1001C6000430A7005330A800A80BE728A70BE528A2
:1001D600A60BE328080083120514FA283008C0008D
:1001E6002F08AF0A0319B00A7620831217213008A8
:1001F600C0002F087620003803190800F128B7013F
:10020600B8010310B60CB50C031C10293308B70748
:1002160034080318340AB8070310B30DB40D3508B3
:1002260036040319003404298312B100F039B300EF
:1002360006080F393304860085148510310EF0390F
:10024600B30006080F3933048600851485100D3077
:10025600B200B20B2C29080083120510323083122B
:10026600E12030308600851485100530E1208514A4
:1002760085102130A500A50B3E2985148510053073
:100286008312E12020308600851485100D30A500EC
:10029600A50B4B29283083121721083017210C3063
:1002A6001721063017292D308312AB00AC00AD00A4
:1002B600AE012B30AA006430B500B6012608B400A2
:1002C6002508B3000E233708A9006430B500B6012F
:1002D6002908B300B40102212608B4002508B3009A
:1002E6003708B302031CB4033808B4020A30B50059
:1002F6000030B6010E233708A8000A30B4002908DA
:10030600D5202807B3000A30B4003308D5202502CB
:10031600A7002A0884002908303E8000AA0A2A0875
:1003260084002808303E8000AA0A2A08840027088C
:10033600303E80002B30AF008030B0008312EE28B4
:100346008316850103308600811201178B160B1662
:1003560083122F2183168111011181140114831236
:100366000D10930194019D019E019F01A0018E0134
:10037600273092000515063081008B170030C82003
:100386009730AF000030B000EE204030C8208930F2
:10039600AF000030B000EE20263012020318CF293D
:1003A6008618D7298511D8298515CE200230C82070
:1003B6009230AF000030B000EE201E301202031C57
:1003C600EA291208653CC820FF30C320E029CE2068
:1003D600033090008618F2290515033090001108A5
:1003E60012060319092B0D18202A2830B700B80168
:0A03F600B901BA011D08B3001E088A
:10040000B4001F08B5002008B600C3232730BF0082
:10041000C0011208BF02031CC0033F08B700400818
:10042000B8000030B81BFF30B900BA0048233308C9
:1004300095003408960035089700360898004A2A37
:100440001908B7001A08B8001B08B9001C08BA0040
:100450001208B300B401B501B601C3232830B700B8
:100460000030B801B901BA0148231D0833079500CF
:10047000340896001E0803181E0F960735089700CB
:100480001F0803181F0F9707360898002008031845
:10049000200F9807120891008312CE200030180216
:1004A000031D5C2A00301702031D5C2A033016026C
:1004B000031D5C2AE83015020318652ACE2000309F
:1004C000C820A130AF0000306B2ACE200030C820F9
:1004D0009F30AF000030B000EE20A330AF000030FE
:1004E000B000EE20E830B7000330B800B901BA011F
:1004F0001508B3001608B4001708B5001808B600B0
:1005000048233308A1003408A2003508A3003608A8
:10051000A4002208B4002108B300E830B50003307D
:10052000B60002211608B4001508B3003708B3025C
:10053000031CB4033808B4023308A5003408A6002D
:100540005621A630AF000030B000EE200030180277
:10055000031DB42A00301702031DB42A0730160207
:10056000031DB42AD0301502031CD22ACE2000303D
:10057000C820E730B7000330B800B901BA01150848
:10058000B3001608B4001708B5001808B6004823D1
:100590003308A5003408A6005621A630AF0000306D
:1005A000B000EE2000302002031DE02A00301F02C0
:1005B000031DE02A03301E02031DE02AE8301D025D
:1005C00040300318EA2AC8201D08A5001E08A6000E
:1005D0005621032BC8200A30B700B801B901BA016F
:1005E0001D08B3001E08B4001F08B5002008B6009F
:1005F00048233308A5003408A6005621A130AF00D7
:100600000030B000EE204530C8201208A500A60139
:1006100056219008031DED290511ED29B901B701F7
:10062000B80135083604031D182BB301B40100349A
:100630001F30B9040310B90AB50DB60D031C1B2BEE
:10064000B60CB50C36083402031D282B35083302CE
:10065000031C302B3508B3023608031C360AB402DB
:10066000B70DB80DB90BB91A202BB91F3C2BB70920
:10067000B70A0319B803B8093708B5003808B60037
:10068000391F0034B309B30A0319B403B4090034A1
:1006900084018312C101BB01BC01BD01BE01370849
:1006A000380439043A040319582BC030C105632BB0
:1006B000B301B401B501B601F12B0310B70DB80DAC
:1006C000B90DBA0DC10ABA1F5D2BC10A0310BB0DCB
:1006D000BC0DBD0DBE0D3A083602031D792B39083D
:1006E0003502031D792B38083402031D792B370896
:1006F0003302031C8B2B3B143708B3023808031C4E
:10070000380FB4023908031C390FB5023A08031C2C
:100710003A0FB6020310BA0CB90CB80CB70CC103EF
:1007200041083F39031D662B411FA32B0310FF30E7
:10073000B307B309031CB407B409031CB507B50913
:10074000031CB607B6093308B7003408B8003508EB
:10075000B9003608BA003B08B3003C08B4003D08B5
:10076000B5003E08B600C11FF12B0310FF30B307E0
:10077000B309031CB407B409031CB507B509031C6E
:10078000B607B609F12B84013308BB003408BC005E
:100790003508BD003608BE00B501B601B301B4018D
:1007A0000310BE0CBD0CBC0CBB0C031CE52B3708A6
:1007B000B30738080318380FB40739080318390F7E
:1007C000B5073A0803183A0FB6073B083C043D0446
:1007D0003E040319F12B0310B70DB80DB90DBA0D76
:1007E000D02B8408031900343608800084033508B0
:1007F00080008403340880008403330880000034C0
:00000001FF
