:10000000830100308A00F228FC0003088301DA0033
:100010000408DB007008E8007A08DF007B08DE00D7
:100020006908DD007108DC007208E0007308E50073
:100030007408E6007508E7007608E4007708E10038
:100040007808E2007908E3000B1D9D280B110630AB
:10005000831203138100A10B2E280611A30A230883
:10006000FA3A031D9D28A30131083004031D3B28E3
:1000700006150A30A100450844044304420403194C
:1000800054280130F000F101F201F301C2027108BD
:10009000031C710FC3027208031C720FC4027308A1
:1000A000031C730AC5028528A20803195828A20355
:1000B000A2080319A0186628A0140A30F400F5015C
:1000C000F601F7013E30840083133B2783120313AC
:1000D000A01870282730C200C301C401C5017728C9
:1000E0008F30C2000130C300C401C5018511201C3E
:1000F00020143E08B6003F08B7004008B800410889
:10010000B900BE01BF01C001C1012D08F1002C08DA
:10011000F000F201F301BE0771080318710FBF0769
:1001200072080318720FC00773080318730AC10717
:10013000AC01AD01A508031DA5038B1CCF288312BC
:1001400003130615A101A10A2D08193A64300319F9
:100150002C060319AE28AC0A0319AD0A00302F0291
:10016000103003192E020318B828AE0A0319AF0A7B
:10017000003031020C30031930020318CE28B00AC7
:100180000319B10AB00A0319B10AB00A0319B10A76
:10019000B00A0319B10AB00A0319B10A8B1003138C
:1001A00083126808F0005F08FA005E08FB005D0833
:1001B000E9005C08F1006008F2006508F3006608D9
:1001C000F4006708F5006408F6006108F7006208AB
:1001D000F8006308F9005B0884005A088300FC0EED
:1001E0007C0E0900213084005830FF20203084002C
:1001F0002130FF208301C22B04068001840A0406FB
:10020000031DFC28003483120313D800D91B1129C5
:10021000591B192959088A005808D80A0319D90AFC
:1002200082008313591883175808D80A84000008DD
:10023000080054343D34343430343034733465344D
:100240006B34003454343D3434343034203473341B
:1002500065346B34003473346F34663474347734FB
:10026000613472346534003454344F345434483477
:1002700045344D344134003439340034383400349A
:1002800037340034363400343534003434340034F8
:100290003334003432340034313400345734613470
:1002A000693474342E3400342D3400348207203401
:1002B0006D346B3452340034820720346D34523440
:0602C000003482070A343D
:1005D2008301CA000514392B8301CA000510803E2D
:1005E200392B83010510013039230230042BF0002E
:1005F2000030711870070310F00D0310F10CF108B0
:1006020003190800FA2A8301CB000430CC005330CE
:10061200CD00CD0B0A2BCC0B082BCB0B062B0800E5
:10062200830105141C2B5508D9005408D40A031958
:10063200D50A032139235508D9005408032100386B
:1006420003190800142BF401F5010310F30CF20C4A
:10065200031C322B7008F40771080318710AF5079E
:100662000310F00DF10D7208730403190034262BE8
:100672008301D600F039F00006080F3970048600B5
:1006820085148510560EF039F00006080F397004F3
:100692008600851485100D30D700D70B4E2B08002D
:1006A2008301051032300423303086008514851012
:1006B20005300423851485102130CA00CA0B5F2B34
:1006C200851485100530042320308600851485109A
:1006D2000D30CA00CA0B6B2B28303923083039235E
:1006E2000C3039230630392B2D308301D000D10054
:1006F200D200D3015030CF006430F200F3014B0836
:10070200F1004A08F00001277408CE006430F200BC
:10071200F3014E08F000F10124234B08F1004A08CE
:10072200F0007408F002031CF1037508F1020A30AC
:10073200F2000030F30101277408CD000A30F10005
:100742004E08F8224D07F0000A30F1007008F82236
:100752004A02CC004F08840083134E08303E8000CA
:10076200CF0A4F0884004D08303E8000CF0A4F0860
:1007720084004C08303E80005030D4008030D500D8
:10078200112B831603138501033086000730831271
:100792009F008316811201178B160B1651238316A5
:1007A200811101118114011483122010A010061569
:1007B2007D30A100AC01AD01BE01BF01C001C1018C
:1007C200AE01AF01A3010230A2008618F02B8F30D8
:1007D200C2000130C300C401C501A014F52B2730AB
:1007E200C200C301C401C501051185110630810093
:0E07F2008B17A01C0B2C2A2C0030ED2234306B
:10080000D4000130D50011234030ED222B30D4002C
:100810000130D500112300304502031D192C003092
:100820004402031D192C00304302031D192C2730EC
:100830004202031C3A2CFD2B0030ED223430D40050
:100840000130D50011234030ED222B30D40001308F
:10085000D500112300304502031D382C003044021E
:10086000031D382C01304302031D382C8F30420207
:1008700003181C2CF222A01C542C7B2C0030ED22DF
:100880002230D4000130D50011234030ED224E300B
:10089000D4000130D500112342086B3CED225230C8
:1008A000D4000130D500112300304502031D622C15
:1008B00000304402031D622C00304302031D622CF1
:1008C00024304202031C8B2C3E2C0030ED221930C8
:1008D000D4000130D50011234030ED224E30D40039
:1008E0000130D50011234208D33CED225230D40010
:1008F0000130D500112300304502031D892C003042
:100900004402031D892C01304302031D892C8C30C5
:1009100042020318652CF2228618902C8515912C22
:1009200085110A30A500AE01AF0186189A2C051575
:100930000A30A50045083D06031DA82C44083C06C6
:10094000031DA82C43083B06031DA82C42083A06A9
:100950000319DB2E2018F52CA018D02C2830F40019
:10096000F501F601F7013E08F0003F08F1004008EC
:10097000F2004108F300C3272730F400F501F60127
:10098000F7014208F4024308031C430FF502440830
:10099000031C440FF6024508031C450AF702422DCA
:1009A0009030F4000130F500F601F7013E08F00048
:1009B0003F08F1004008F2004108F300C3278F30E0
:1009C000F4000130F500F601F7014208F402430893
:1009D000031C430FF5024408031C440FF6024508AC
:1009E000031C450AF70247273C2D4208F400430840
:1009F000F5004408F6004508F7003608F00037080F
:100A0000F1003808F2003908F300A018252DC3279B
:100A10002830F4000030F501F601F70147273E08C1
:100A20007007B2007108B3003F0803183F0FB30707
:100A30007208B40040080318400FB4077308B500EB
:100A400041080318410FB5074B2DC3279030F40020
:100A50000130F5000030F601F70147273E08F007A6
:100A60003F0803183F0FF10740080318400FF20733
:100A700041080318410AF3070A30F4000030F50179
:100A8000F601F70147277008B2007108B300720839
:100A9000B4007308B5004208BA004308BB0044081C
:100AA000BC004508BD0000303502031D612D00303B
:100AB0003402031D612D03303302031D612DE83024
:100AC00032020318662DF2220030ED22003035028A
:100AD000031D742D00303402031D742D03303302C6
:100AE000031D742DE8303202031C7E2DF2220030EB
:100AF000ED224C30D4000130D500112300303502F6
:100B0000031D8C2D00303402031D8C2D0730330261
:100B1000031D8C2DD0303202031C962DF2220030A2
:100B2000ED224A30D4000130D500112300303502C7
:100B3000031DA42D00303402031DA42D0B303302FD
:100B4000031DA42DB8303202031CAE2DF22200305A
:100B5000ED224830D4000130D50011230030350299
:100B6000031DBC2D00303402031DBC2D0F30330299
:100B7000031DBC2DA0303202031CC62DF222003012
:100B8000ED224630D4000130D5001123003035026B
:100B9000031DD42D00303402031DD42D1330330235
:100BA000031DD42D88303202031CDE2DF2220030CA
:100BB000ED224430D4000130D5001123003035023D
:100BC000031DEC2D00303402031DEC2D17303302D1
:100BD000031DEC2D70303202031CF62DF222003082
:100BE000ED224230D4000130D5001123003035020F
:100BF000031D042E00303402031D042E1B3033026B
:100C0000031D042E58303202031C0E2EF222003037
:100C1000ED224030D4000130D500112300303502E0
:100C2000031D1C2E00303402031D1C2E1F30330206
:100C3000031D1C2E40303202031C262EF2220030EF
:100C4000ED223E30D4000130D500112300303502B2
:100C5000031D342E00303402031D342E23303302A2
:100C6000031D342E28303202031C3E2EF2220030A7
:100C7000ED223C30D4000130D5001123E830F400DF
:100C80000330F500F601F7013208F0003308F100F7
:100C90003408F2003508F30047277008C6007108D1
:100CA000C7007208C8007308C9004708F100460869
:100CB000F000E830F2000330F30024233308F100A1
:100CC0003208F0007408F002031CF1037508F10209
:100CD0007008CA007108CB0075235730D40001306A
:100CE000D500112300303502031D802E0030340260
:100CF000031D802E27303302031D802E1030320258
:100D0000031C9E2EF2220030ED22E730F400033067
:100D1000F500F601F7013208F0003308F10034085D
:100D2000F2003508F30047277008CA007108CB00AD
:100D300075235D30D4000130D50011234030ED2201
:100D4000A801A90131082902031DA82E3008280294
:100D50000318B32E5430D4000130D5001123A80A53
:100D60000319A90AA22E4030ED22A601A7012F08DF
:100D70002702031DBD2E2E0826020318C52EFF30A4
:100D8000E922A60A0319A70AB72E2F082E04031971
:100D9000CD2EFF30AE07031CAF033108300403191A
:100DA000D52EFF30B007031CB103851DDB2E0730A5
:100DB000ED22ED30E922A5080319051100302F02BC
:100DC000063003192E020318201C952C831681115E
:100DD00001118114011483122010A010AC01AD0187
:100DE000BE01BF01C001C101A3010230A200273032
:100DF000C200C301C401C501063081008B178515EF
:100E0000952CF601F401F50172087304031D0B2FF4
:100E1000F001F10100341F30F6040310F60AF20D60
:100E2000F30D031C0E2FF30CF20C73087102031D5B
:100E30001B2F72087002031C232F7208F002730824
:100E4000031C730AF102F40DF50DF60BF61A132FBD
:100E5000F61F2F2FF409F40A0319F503F509740896
:100E6000F2007508F300761F0034F009F00A031948
:100E7000F103F10900340008F000840A0008F100D1
:100E8000840A0008F200840A0008F300C42F8401D9
:100E900083120313E901F801F901FA01FB01740857
:100EA0007504760477040319582FC030E905632FC1
:100EB000F001F101F201F301F12F0310F40DF50D32
:100EC000F60DF70DE90AF71F5D2FE90A0310F80D7B
:100ED000F90DFA0DFB0D77087302031D792F7608C3
:100EE0007202031D792F75087102031D792F740892
:100EF0007002031C8B2F78147408F0027508031C11
:100F0000750FF1027608031C760FF2027708031CB6
:100F1000770FF3020310F70CF60CF50CF40CE90351
:100F200069083F39031D662F691FA32F0310FF3087
:100F3000F007F009031CF107F109031CF207F2099D
:100F4000031CF307F3097008F4007108F500720838
:100F5000F6007308F7007808F0007908F1007A08C5
:100F6000F2007B08F300E91FF12F0310FF30F007B8
:100F7000F009031CF107F109031CF207F209031C35
:100F8000F307F309F12F84017008F8007108F900E4
:100F90007208FA007308FB00F201F301F001F1019D
:100FA0000310FB0CFA0CF90CF80C031CE52F740869
:100FB000F00775080318750FF10776080318760F08
:100FC000F20777080318770FF307780879047A0493
:100FD0007B040319F12F0310F40DF50DF60DF70D39
:100FE000D02F84080319003473088000840372082A
:100FF000800084037108800084037008800000343E
:00000001FF
