:10000000830100308A006828FC0003088301CF00C8
:100010007008CE007108CA007208CC007308CB00CB
:100020000B1D4A280B110630831203138100A10A0D
:100030002108F93A031D4A28A101A508031922281D
:10004000A50332282730A500201C20143208AE005A
:100050003308AF003408B0003508B100B201B30175
:10006000B401B5012908F1002808F000F201F301FC
:10007000B20771080318710FB30772080318720FE3
:10008000B40773080318730AB507A801A901A308E8
:10009000031DA3038B1C5928831203132908193A43
:1000A00064300319280603195828A80A0319A90A55
:1000B0008B10031383124E08F0004A08F1004C081D
:1000C000F2004B08F3004F088300FC0E7C0E090081
:1000D0002130840048307520203084002130752084
:1000E00083015E2C04068001840A0406031D722825
:1000F000003483120313C800C91B8728491B8F28AB
:1001000049088A004808C80A0319C90A82008313EB
:10011000491883174808C80A840000080800733487
:100120006F34663474347734613472346534003437
:10013000573441344934543400344B34003454344B
:100140004F345434483445344D3441340034393418
:100150000034383400343734003436340034353425
:100160000034343400343334003432340034313425
:100170000034303400342E340034820720346D349F
:100180006B3452340034820720346D3452340034DE
:0401900082070334AB
:10070A008301BA000514D52B8301BA000510803E77
:10071A00D52B830105100130D5230230A02BF00020
:10072A000030711870070310F00D0310F10CF10876
:10073A0003190800962B8301BB000430BC00533018
:10074A00BD00BD0BA62BBC0BA42BBB0BA22B080018
:10075A0083010514B82B4508C9004408C40A0319C3
:10076A00C50A7920D5234508C900440879200038EC
:10077A0003190800B02BF401F5010310F30CF20C75
:10078A00031CCE2B7008F40771080318710AF507C9
:10079A000310F00DF10D7208730403190034C22B13
:1007AA008301C600F039F00006080F39700486008C
:1007BA0085148510460EF039F00006080F397004CA
:1007CA008600851485100D30C700C70BEA2B080078
:1007DA00830105103230A02330308600851485103D
:1007EA000530A023851485102130BA00BA0BFB2BE3
:0607FA0085148510053096
:10080000A02320308600851485100D30BA00BA0B65
:10081000072C2830D5230830D5230C30D5230630BB
:10082000D52B2D308301C000C100C200C301403070
:10083000BF006430F200F3013B08F1003A08F00019
:100840000D277408BE006430F200F3013E08F0008A
:10085000F101C0233B08F1003A08F0007408F002EF
:10086000031CF1037508F1020A30F2000030F301B5
:100870000D277408BD000A30F1003E0894233D079F
:10088000F0000A30F100700894233A02BC003F08DF
:10089000840083133E08303E8000BF0A3F08840076
:1008A0003D08303E8000BF0A3F0884003C08303ECF
:1008B00080004030C4008030C500AD2B8316031388
:1008C000850103308600073083129F008316811252
:1008D00001178B160B16ED2383168111011181145C
:1008E000011483122010A801A901B201B301B401BF
:1008F000B501A1012730A5000515063081008B1731
:10090000003089239F30C4000030C500AD23403043
:1009100089238F30C4000030C500AD232630250266
:1009200003188E2C8618962C8511972C85158E23EE
:10093000023089239830C4000030C500AD231E303A
:100940002502031CA92C2508653C8923FF3085233B
:100950009F2C8E230330A3008618B12C051503307D
:10096000A300240825060319082F2018DE2C2830A0
:10097000F400F501F601F7013208F0003308F10048
:100980003408F2003508F300C3272730C800C90136
:100990002508C802031CC9034808F4004908F500EB
:1009A0000030F51BFF30F600F70047277008AA005B
:1009B0007108AB007208AC0073082D2D3208F000EE
:1009C0003308F1003408F2003508F3000310F30C8B
:1009D000F20CF10CF00C7008B6007108B700720848
:1009E000B8007308B9002E08F4002F08F50030088D
:1009F000F6003108F7002508F000F1012930F00772
:100A00000318F10A700871080030F11BFF30F20082
:100A1000F300C3275030F4000030F501F601F70170
:100A2000472736087007F4007108F50037080318E7
:100A3000370FF5077208F60038080318380FF60765
:100A40007308F70039080318390FF7077408AA006C
:100A50007508AB007608AC007708AD002508A40047
:100A60008E2300302D02031D3F2D00302C02031D6C
:100A70003F2D03302B02031D3F2DE8302A020318BF
:100A8000492D8E2300308923B930C4000030C500C1
:100A9000AD2300302D02031D572D00302C02031D05
:100AA000572D03302B02031D572DE8302A02031C5B
:100AB000612D8E2300308923B730C4000030C5007B
:100AC000AD2300302D02031D6F2D00302C02031DBD
:100AD0006F2D07302B02031D6F2DD0302A02031C0F
:100AE000792D8E2300308923B530C4000030C50035
:100AF000AD2300302D02031D872D00302C02031D75
:100B0000872D0B302B02031D872DB8302A02031CC2
:100B1000912D8E2300308923B330C4000030C500EE
:100B2000AD2300302D02031D9F2D00302C02031D2C
:100B30009F2D0F302B02031D9F2DA0302A02031C76
:100B4000A92D8E2300308923B130C4000030C500A8
:100B5000AD2300302D02031DB72D00302C02031DE4
:100B6000B72D13302B02031DB72D88302A02031C2A
:100B7000C12D8E2300308923AF30C4000030C50062
:100B8000AD2300302D02031DCF2D00302C02031D9C
:100B9000CF2D17302B02031DCF2D70302A02031CDE
:100BA000D92D8E2300308923AD30C4000030C5001C
:100BB000AD2300302D02031DE72D00302C02031D54
:100BC000E72D1B302B02031DE72D58302A02031C92
:100BD000F12D8E2300308923AB30C4000030C500D6
:100BE000AD2300302D02031DFF2D00302C02031D0C
:100BF000FF2D1F302B02031DFF2D40302A02031C46
:100C0000092E8E2300308923A930C4000030C5008E
:100C1000AD2300302D02031D172E00302C02031DC2
:100C2000172E23302B02031D172E28302A02031CF7
:100C3000212E8E2300308923A730C4000030C50048
:100C4000AD23BB30C4000030C500AD23E830F40054
:100C50000330F500F601F7012A08F0002B08F10037
:100C60002C08F2002D08F30047277008B600710821
:100C7000B7007208B8007308B9003708F1003608E9
:100C8000F000E830F2000330F300C0232B08F1003D
:100C90002A08F0007408F002031CF1037508F10241
:100CA0007008BA007108BB001124C430C4000030C1
:100CB000C500AD2300302D02031D682E00302C022C
:100CC000031D682E27302B02031D682E10302A02C8
:100CD000031C862E8E2300308923E730F400033076
:100CE000F500F601F7012A08F0002B08F1002C08A6
:100CF000F2002D08F30047277008BA007108BB0006
:100D00001124C430C4000030C500AD2300303502CA
:100D1000031D942E00303402031D942E0330330241
:100D2000031D942EE830320203189D2E4030892393
:100D30003208BA003308BB001124003035020030FD
:100D4000031DAC2E3402031DAB2E03303302031DF2
:100D5000AB2EE83032020030031CD82E3502031DC2
:100D6000BB2E00303402031DBB2E27303302031D7F
:100D7000BB2E103032020318D72E403089230A30A0
:100D8000F400F501F601F7013208F0003308F10034
:100D90003408F2003508F30047277008BA007108DC
:100DA000BB001124B930C4000030C500AD230030B1
:100DB0003502031DE52E00303402031DE52E2730D9
:100DC0003302031DE52E10303202031C022F403087
:100DD0008923E730F4000330F500F601F70132080B
:100DE000F0003308F1003408F2003508F30047271B
:100DF0007008BA007108BB0011249D30C400003097
:100E0000C500AD23453089232508BA00BB01112454
:100E1000A308031DAC2C0511AC2CF601F401F5015F
:100E200072087304031D172FF001F10100341F3005
:100E3000F6040310F60AF20DF30D031C1A2FF30C3F
:100E4000F20C73087102031D272F72087002031C35
:100E50002F2F7208F0027308031C730AF102F40DBD
:100E6000F50DF60BF61A1F2FF61F3B2FF409F40AA7
:100E70000319F503F5097408F2007508F300761FED
:100E80000034F009F00A0319F103F1090034840178
:100E900083120313CD01F801F901FA01FB01740873
:100EA0007504760477040319582FC030CD05632FDD
:100EB000F001F101F201F301F12F0310F40DF50D32
:100EC000F60DF70DCD0AF71F5D2FCD0A0310F80DB3
:100ED000F90DFA0DFB0D77087302031D792F7608C3
:100EE0007202031D792F75087102031D792F740892
:100EF0007002031C8B2F78147408F0027508031C11
:100F0000750FF1027608031C760FF2027708031CB6
:100F1000770FF3020310F70CF60CF50CF40CCD036D
:100F20004D083F39031D662F4D1FA32F0310FF30BF
:100F3000F007F009031CF107F109031CF207F2099D
:100F4000031CF307F3097008F4007108F500720838
:100F5000F6007308F7007808F0007908F1007A08C5
:100F6000F2007B08F300CD1FF12F0310FF30F007D4
:100F7000F009031CF107F109031CF207F209031C35
:100F8000F307F309F12F84017008F8007108F900E4
:100F90007208FA007308FB00F201F301F001F1019D
:100FA0000310FB0CFA0CF90CF80C031CE52F740869
:100FB000F00775080318750FF10776080318760F08
:100FC000F20777080318770FF307780879047A0493
:100FD0007B040319F12F0310F40DF50DF60DF70D39
:100FE000D02F84080319003473088000840372082A
:100FF000800084037108800084037008800000343E
:00000001FF
