:10000000830100308A006828FC0003088301CD00CA
:100010007008CB007108CC007208C9007308CA00D0
:100020000B1D4A280B110630831203138100A10A0D
:100030002108F93A031D4A28A101A508031922281D
:10004000A50332282730A500201C20143008AC005E
:100050003108AD003208AE003308AF00B001B10185
:10006000B201B3012708F1002608F000F201F30104
:10007000B00771080318710FB10772080318720FE7
:10008000B20773080318730AB307A601A701A308F0
:10009000031DA3038B1C5928831203132708193A45
:1000A00064300319260603195828A60A0319A70A5B
:1000B0008B10031383124B08F0004C08F100490821
:1000C000F2004A08F3004D088300FC0E7C0E090084
:1000D0002130840046307520203084002130752086
:1000E0008301832C04068001840A0406031D722800
:1000F000003483120313C600C71B8728471B8F28B1
:1001000047088A004608C60A0319C70A82008313F3
:10011000471883174608C60A84000008080073348D
:100120006F34663474347734613472346534003437
:10013000573441344934543400344B34003454344B
:100140004F345434483445344D3441340034393418
:100150000034383400343734003436340034353425
:100160000034343400343334003432340034313425
:100170000034303400342E340034820720346D349F
:080180005234003482070334FD
:100754008301B8000514FA2B8301B8000510803E0C
:10076400FA2B830105100130FA230230C52BF00067
:100774000030711870070310F00D0310F10CF1082C
:1007840003190800BB2B8301B9000430BA005330AD
:10079400BB00BB0BCB2BBA0BC92BB90BC72B080067
:1007A40083010514DD2B4308C7004208C20A03195C
:1007B400C30A7920FA234308C70042087920003885
:1007C40003190800D52BF401F5010310F30CF20C06
:1007D400031CF32B7008F40771080318710AF5075A
:1007E4000310F00DF10D7208730403190034E72BA4
:0C07F4008301C400F039F00006080F3942
:100800007004860085148510440EF039F000060847
:100810000F3970048600851485100D30C500C50B96
:100820000F2C0800830105103230C52330308600BC
:10083000851485100530C523851485102130B80036
:10084000B80B202C851485100530C5232030860078
:10085000851485100D30B800B80B2C2C2830FA23E5
:100860000830FA230C30FA230630FA2B2D3083019E
:10087000BE00BF00C000C1013E30BD006430F200C8
:10088000F3013908F1003808F0000D277408BC00A6
:100890006430F200F3013C08F000F101E52339086F
:1008A000F1003808F0007408F002031CF103750829
:1008B000F1020A30F2000030F3010D277408BB008A
:1008C0000A30F1003C08B9233B07F0000A30F10080
:1008D0007008B9233802BA003D08840083133C082D
:1008E000303E8000BD0A3D0884003B08303E800059
:1008F000BD0A3D0884003A08303E80003E30C20008
:100900008030C300D22B8316031385010330860089
:10091000073083129F008316811201178B160B1666
:1009200012248316811101118114011483122010E5
:10093000A601A701B001B101B201B301A1012730A5
:10094000A5000515063081008B170030AE239F30BF
:10095000C2000030C300D2234030AE238F30C2002B
:100960000030C300D223263025020318B32C86188A
:10097000BB2C8511BC2C8515B3230230AE239830D7
:10098000C2000030C300D2231E302502031CCE2C2F
:100990002508653CAE23FF30AA23C42CB3230330C3
:1009A000A3008618D62C05150330A30024082506BD
:1009B0000319082F2018042D2830F400F501F60142
:1009C000F7013008F0003108F1003208F200330876
:1009D000F300C3272730C600C7012508C602031C41
:1009E000C7034608F4004708F5000030F51BFF3048
:1009F000F600F70047277008A8007108A9007208E0
:100A0000AA007308AB002E2D2C08F4002D08F50069
:100A10002E08F6002F08F7002508F000F101F2017A
:100A2000F301C3272830F4000030F501F601F70187
:100A3000472730087007A8007108A900310803187B
:100A4000310FA9077208AA0032080318320FAA074B
:100A50007308AB0033080318330FAB072508A40055
:100A6000B32300302B02031D3F2D00302A02031D4B
:100A70003F2D03302902031D3F2DE83028020318C3
:100A8000492DB3230030AE23B930C2000030C3007B
:100A9000D22300302B02031D572D00302A02031DE4
:100AA000572D03302902031D572DE8302802031C5F
:100AB000612DB3230030AE23B730C2000030C30035
:100AC000D22300302B02031D6F2D00302A02031D9C
:100AD0006F2D07302902031D6F2DD0302802031C13
:100AE000792DB3230030AE23B530C2000030C300EF
:100AF000D22300302B02031D872D00302A02031D54
:100B0000872D0B302902031D872DB8302802031CC6
:100B1000912DB3230030AE23B330C2000030C300A8
:100B2000D22300302B02031D9F2D00302A02031D0B
:100B30009F2D0F302902031D9F2DA0302802031C7A
:100B4000A92DB3230030AE23B130C2000030C30062
:100B5000D22300302B02031DB72D00302A02031DC3
:100B6000B72D13302902031DB72D88302802031C2E
:100B7000C12DB3230030AE23AF30C2000030C3001C
:100B8000D22300302B02031DCF2D00302A02031D7B
:100B9000CF2D17302902031DCF2D70302802031CE2
:100BA000D92DB3230030AE23AD30C2000030C300D6
:100BB000D22300302B02031DE72D00302A02031D33
:100BC000E72D1B302902031DE72D58302802031C96
:100BD000F12DB3230030AE23AB30C2000030C30090
:100BE000D22300302B02031DFF2D00302A02031DEB
:100BF000FF2D1F302902031DFF2D40302802031C4A
:100C0000092EB3230030AE23A930C2000030C30048
:100C1000D22300302B02031D172E00302A02031DA1
:100C2000172E23302902031D172E28302802031CFB
:100C3000212EB3230030AE23A730C2000030C30002
:100C4000D223BB30C2000030C300D223E830F4000E
:100C50000330F500F601F7012808F0002908F1003B
:100C60002A08F2002B08F30047277008B400710827
:100C7000B5007208B6007308B7003508F1003408F3
:100C8000F000E830F2000330F300E5232908F1001A
:100C90002808F0007408F002031CF1037508F10243
:100CA0007008B8007108B9003624BE30C2000030A8
:100CB000C300D22300302B02031D682E00302A020D
:100CC000031D682E27302902031D682E10302802CC
:100CD000031C862EB3230030AE23E730F40003302C
:100CE000F500F601F7012808F0002908F1002A08AC
:100CF000F2002B08F30047277008B8007108B9000C
:100D00003624BE30C2000030C300D223003033028C
:100D1000031D942E00303202031D942E0330310245
:100D2000031D942EE830300203189D2E4030AE2370
:100D30003008B8003108B9003624003033020030E2
:100D4000031DAC2E3202031DAB2E03303102031DF6
:100D5000AB2EE83030020030031CD82E3302031DC6
:100D6000BB2E00303202031DBB2E27303102031D83
:100D7000BB2E103030020318D72E4030AE230A307D
:100D8000F400F501F601F7013008F0003108F10038
:100D90003208F2003308F30047277008B8007108E2
:100DA000B9003624B930C2000030C300D22300306D
:100DB0003302031DE52E00303202031DE52E2730DD
:100DC0003102031DE52E10303002031C022F40308B
:100DD000AE23E730F4000330F500F601F7013008E8
:100DE000F0003108F1003208F2003308F300472721
:100DF0007008B8007108B90036249D30C200003078
:100E0000C300D2234530AE232508B800B9013624EB
:100E1000A308031DD12C0511D12CF601F401F50115
:100E200072087304031D172FF001F10100341F3005
:100E3000F6040310F60AF20DF30D031C1A2FF30C3F
:100E4000F20C73087102031D272F72087002031C35
:100E50002F2F7208F0027308031C730AF102F40DBD
:100E6000F50DF60BF61A1F2FF61F3B2FF409F40AA7
:100E70000319F503F5097408F2007508F300761FED
:100E80000034F009F00A0319F103F1090034840178
:100E900083120313C801F801F901FA01FB01740878
:100EA0007504760477040319582FC030C805632FE2
:100EB000F001F101F201F301F12F0310F40DF50D32
:100EC000F60DF70DC80AF71F5D2FC80A0310F80DBD
:100ED000F90DFA0DFB0D77087302031D792F7608C3
:100EE0007202031D792F75087102031D792F740892
:100EF0007002031C8B2F78147408F0027508031C11
:100F0000750FF1027608031C760FF2027708031CB6
:100F1000770FF3020310F70CF60CF50CF40CC80372
:100F200048083F39031D662F481FA32F0310FF30C9
:100F3000F007F009031CF107F109031CF207F2099D
:100F4000031CF307F3097008F4007108F500720838
:100F5000F6007308F7007808F0007908F1007A08C5
:100F6000F2007B08F300C81FF12F0310FF30F007D9
:100F7000F009031CF107F109031CF207F209031C35
:100F8000F307F309F12F84017008F8007108F900E4
:100F90007208FA007308FB00F201F301F001F1019D
:100FA0000310FB0CFA0CF90CF80C031CE52F740869
:100FB000F00775080318750FF10776080318760F08
:100FC000F20777080318770FF307780879047A0493
:100FD0007B040319F12F0310F40DF50DF60DF70D39
:100FE000D02F84080319003473088000840372082A
:100FF000800084037108800084037008800000343E
:00000001FF
